{
  "contractName": "CityImprovement",
  "abi": [
    {
      "inputs": [],
      "payable": false,
      "stateMutability": "nonpayable",
      "type": "constructor"
    },
    {
      "anonymous": false,
      "inputs": [
        {
          "indexed": false,
          "internalType": "uint256",
          "name": "ideaID",
          "type": "uint256"
        }
      ],
      "name": "LogApproveIdea",
      "type": "event"
    },
    {
      "anonymous": false,
      "inputs": [
        {
          "indexed": false,
          "internalType": "uint256",
          "name": "ideaID",
          "type": "uint256"
        }
      ],
      "name": "LogNewIdea",
      "type": "event"
    },
    {
      "anonymous": false,
      "inputs": [
        {
          "indexed": false,
          "internalType": "uint256",
          "name": "ideaID",
          "type": "uint256"
        }
      ],
      "name": "LogRejectIdea",
      "type": "event"
    },
    {
      "anonymous": false,
      "inputs": [
        {
          "indexed": true,
          "internalType": "address",
          "name": "previousOwner",
          "type": "address"
        },
        {
          "indexed": true,
          "internalType": "address",
          "name": "newOwner",
          "type": "address"
        }
      ],
      "name": "OwnershipTransferred",
      "type": "event"
    },
    {
      "constant": true,
      "inputs": [
        {
          "internalType": "address",
          "name": "",
          "type": "address"
        }
      ],
      "name": "applicants",
      "outputs": [
        {
          "internalType": "bool",
          "name": "",
          "type": "bool"
        }
      ],
      "payable": false,
      "stateMutability": "view",
      "type": "function"
    },
    {
      "constant": true,
      "inputs": [],
      "name": "improvementCounts",
      "outputs": [
        {
          "internalType": "uint256",
          "name": "",
          "type": "uint256"
        }
      ],
      "payable": false,
      "stateMutability": "view",
      "type": "function"
    },
    {
      "constant": true,
      "inputs": [
        {
          "internalType": "uint256",
          "name": "",
          "type": "uint256"
        }
      ],
      "name": "improvements",
      "outputs": [
        {
          "internalType": "string",
          "name": "title",
          "type": "string"
        },
        {
          "internalType": "string",
          "name": "description",
          "type": "string"
        },
        {
          "internalType": "string",
          "name": "problem",
          "type": "string"
        },
        {
          "internalType": "string",
          "name": "solution",
          "type": "string"
        },
        {
          "internalType": "address payable",
          "name": "applicant",
          "type": "address"
        },
        {
          "internalType": "uint256",
          "name": "votes",
          "type": "uint256"
        },
        {
          "internalType": "uint256",
          "name": "approvals",
          "type": "uint256"
        },
        {
          "internalType": "bytes32",
          "name": "proof",
          "type": "bytes32"
        },
        {
          "internalType": "enum Proposal.State",
          "name": "status",
          "type": "uint8"
        }
      ],
      "payable": false,
      "stateMutability": "view",
      "type": "function"
    },
    {
      "constant": true,
      "inputs": [],
      "name": "isOwner",
      "outputs": [
        {
          "internalType": "bool",
          "name": "",
          "type": "bool"
        }
      ],
      "payable": false,
      "stateMutability": "view",
      "type": "function"
    },
    {
      "constant": true,
      "inputs": [],
      "name": "owner",
      "outputs": [
        {
          "internalType": "address",
          "name": "",
          "type": "address"
        }
      ],
      "payable": false,
      "stateMutability": "view",
      "type": "function"
    },
    {
      "constant": false,
      "inputs": [],
      "name": "renounceOwnership",
      "outputs": [],
      "payable": false,
      "stateMutability": "nonpayable",
      "type": "function"
    },
    {
      "constant": false,
      "inputs": [
        {
          "internalType": "address",
          "name": "newOwner",
          "type": "address"
        }
      ],
      "name": "transferOwnership",
      "outputs": [],
      "payable": false,
      "stateMutability": "nonpayable",
      "type": "function"
    },
    {
      "constant": true,
      "inputs": [
        {
          "internalType": "uint256",
          "name": "id",
          "type": "uint256"
        }
      ],
      "name": "readProposal",
      "outputs": [
        {
          "internalType": "string",
          "name": "title",
          "type": "string"
        },
        {
          "internalType": "string",
          "name": "description",
          "type": "string"
        },
        {
          "internalType": "address",
          "name": "applicant",
          "type": "address"
        },
        {
          "internalType": "address payable[]",
          "name": "approver",
          "type": "address[]"
        },
        {
          "internalType": "uint256",
          "name": "votes",
          "type": "uint256"
        },
        {
          "internalType": "bytes32",
          "name": "proof",
          "type": "bytes32"
        },
        {
          "internalType": "enum Proposal.State",
          "name": "status",
          "type": "uint8"
        }
      ],
      "payable": false,
      "stateMutability": "view",
      "type": "function"
    },
    {
      "constant": false,
      "inputs": [
        {
          "internalType": "string",
          "name": "title",
          "type": "string"
        },
        {
          "internalType": "string",
          "name": "description",
          "type": "string"
        },
        {
          "internalType": "string",
          "name": "problem",
          "type": "string"
        },
        {
          "internalType": "string",
          "name": "solution",
          "type": "string"
        }
      ],
      "name": "submit",
      "outputs": [
        {
          "internalType": "bool",
          "name": "",
          "type": "bool"
        }
      ],
      "payable": false,
      "stateMutability": "nonpayable",
      "type": "function"
    },
    {
      "constant": false,
      "inputs": [
        {
          "internalType": "uint256",
          "name": "id",
          "type": "uint256"
        }
      ],
      "name": "approve",
      "outputs": [],
      "payable": true,
      "stateMutability": "payable",
      "type": "function"
    },
    {
      "constant": false,
      "inputs": [
        {
          "internalType": "uint256",
          "name": "id",
          "type": "uint256"
        }
      ],
      "name": "reject",
      "outputs": [],
      "payable": false,
      "stateMutability": "nonpayable",
      "type": "function"
    },
    {
      "constant": false,
      "inputs": [
        {
          "internalType": "uint256",
          "name": "id",
          "type": "uint256"
        }
      ],
      "name": "vote",
      "outputs": [],
      "payable": false,
      "stateMutability": "nonpayable",
      "type": "function"
    },
    {
      "constant": false,
      "inputs": [
        {
          "internalType": "uint256",
          "name": "id",
          "type": "uint256"
        }
      ],
      "name": "close",
      "outputs": [],
      "payable": false,
      "stateMutability": "nonpayable",
      "type": "function"
    },
    {
      "constant": false,
      "inputs": [],
      "name": "applyForApprover",
      "outputs": [],
      "payable": false,
      "stateMutability": "nonpayable",
      "type": "function"
    },
    {
      "constant": false,
      "inputs": [],
      "name": "applyForVoter",
      "outputs": [],
      "payable": false,
      "stateMutability": "nonpayable",
      "type": "function"
    }
  ],
  "bytecode": "0x608060405260c860065534801561001557600080fd5b506100246100ec60201b60201c565b6000806101000a81548173ffffffffffffffffffffffffffffffffffffffff021916908373ffffffffffffffffffffffffffffffffffffffff1602179055506000809054906101000a900473ffffffffffffffffffffffffffffffffffffffff1673ffffffffffffffffffffffffffffffffffffffff16600073ffffffffffffffffffffffffffffffffffffffff167f8be0079c531659141344cd1fd0a4f28419497f9722a3daafe3b4186f6b6457e060405160405180910390a360006005819055506100f4565b600033905090565b612f1180620001046000396000f3fe6080604052600436106100e85760003560e01c8063905d5e251161008a578063ccd6686311610059578063ccd6686314610517578063d1eba6c714610580578063f2fde38b1461073e578063fdaa0cc71461078f576100e8565b8063905d5e2514610242578063b759f95414610259578063b8adaa1114610287578063bf4f1e98146102c2576100e8565b8063441822a1116100c6578063441822a11461018e578063715018a6146101a55780638da5cb5b146101bc5780638f32d59b14610213576100e8565b80630121b93f146100ed5780630aebeb4e146101285780632fe834fe14610163575b600080fd5b3480156100f957600080fd5b506101266004803603602081101561011057600080fd5b8101908080359060200190929190505050610a34565b005b34801561013457600080fd5b506101616004803603602081101561014b57600080fd5b8101908080359060200190929190505050610dcc565b005b34801561016f57600080fd5b50610178611007565b6040518082815260200191505060405180910390f35b34801561019a57600080fd5b506101a361100d565b005b3480156101b157600080fd5b506101ba6111be565b005b3480156101c857600080fd5b506101d16112f7565b604051808273ffffffffffffffffffffffffffffffffffffffff1673ffffffffffffffffffffffffffffffffffffffff16815260200191505060405180910390f35b34801561021f57600080fd5b50610228611320565b604051808215151515815260200191505060405180910390f35b34801561024e57600080fd5b5061025761137e565b005b6102856004803603602081101561026f57600080fd5b810190808035906020019092919050505061152f565b005b34801561029357600080fd5b506102c0600480360360208110156102aa57600080fd5b8101908080359060200190929190505050611f0c565b005b3480156102ce57600080fd5b506102fb600480360360208110156102e557600080fd5b8101908080359060200190929190505050612171565b60405180806020018060200180602001806020018a73ffffffffffffffffffffffffffffffffffffffff1673ffffffffffffffffffffffffffffffffffffffff16815260200189815260200188815260200187815260200186600481111561035f57fe5b60ff16815260200185810385528e818151815260200191508051906020019080838360005b8381101561039f578082015181840152602081019050610384565b50505050905090810190601f1680156103cc5780820380516001836020036101000a031916815260200191505b5085810384528d818151815260200191508051906020019080838360005b838110156104055780820151818401526020810190506103ea565b50505050905090810190601f1680156104325780820380516001836020036101000a031916815260200191505b5085810383528c818151815260200191508051906020019080838360005b8381101561046b578082015181840152602081019050610450565b50505050905090810190601f1680156104985780820380516001836020036101000a031916815260200191505b5085810382528b818151815260200191508051906020019080838360005b838110156104d15780820151818401526020810190506104b6565b50505050905090810190601f1680156104fe5780820380516001836020036101000a031916815260200191505b509d505050505050505050505050505060405180910390f35b34801561052357600080fd5b506105666004803603602081101561053a57600080fd5b81019080803573ffffffffffffffffffffffffffffffffffffffff16906020019092919050505061244c565b604051808215151515815260200191505060405180910390f35b34801561058c57600080fd5b506105b9600480360360208110156105a357600080fd5b810190808035906020019092919050505061246c565b6040518080602001806020018873ffffffffffffffffffffffffffffffffffffffff1673ffffffffffffffffffffffffffffffffffffffff1681526020018060200187815260200186815260200185600481111561061357fe5b60ff16815260200184810384528b818151815260200191508051906020019080838360005b83811015610653578082015181840152602081019050610638565b50505050905090810190601f1680156106805780820380516001836020036101000a031916815260200191505b5084810383528a818151815260200191508051906020019080838360005b838110156106b957808201518184015260208101905061069e565b50505050905090810190601f1680156106e65780820380516001836020036101000a031916815260200191505b50848103825288818151815260200191508051906020019060200280838360005b83811015610722578082015181840152602081019050610707565b505050509050019a505050505050505050505060405180910390f35b34801561074a57600080fd5b5061078d6004803603602081101561076157600080fd5b81019080803573ffffffffffffffffffffffffffffffffffffffff16906020019092919050505061271f565b005b34801561079b57600080fd5b50610a1a600480360360808110156107b257600080fd5b81019080803590602001906401000000008111156107cf57600080fd5b8201836020820111156107e157600080fd5b8035906020019184600183028401116401000000008311171561080357600080fd5b91908080601f016020809104026020016040519081016040528093929190818152602001838380828437600081840152601f19601f8201169050808301925050505050505091929192908035906020019064010000000081111561086657600080fd5b82018360208201111561087857600080fd5b8035906020019184600183028401116401000000008311171561089a57600080fd5b91908080601f016020809104026020016040519081016040528093929190818152602001838380828437600081840152601f19601f820116905080830192505050505050509192919290803590602001906401000000008111156108fd57600080fd5b82018360208201111561090f57600080fd5b8035906020019184600183028401116401000000008311171561093157600080fd5b91908080601f016020809104026020016040519081016040528093929190818152602001838380828437600081840152601f19601f8201169050808301925050505050505091929192908035906020019064010000000081111561099457600080fd5b8201836020820111156109a657600080fd5b803590602001918460018302840111640100000000831117156109c857600080fd5b91908080601f016020809104026020016040519081016040528093929190818152602001838380828437600081840152601f19601f8201169050808301925050505050505091929192905050506127a5565b604051808215151515815260200191505060405180910390f35b3360011515600360008373ffffffffffffffffffffffffffffffffffffffff1673ffffffffffffffffffffffffffffffffffffffff16815260200190815260200160002060009054906101000a900460ff16151514610afb576040517f08c379a00000000000000000000000000000000000000000000000000000000081526004018080602001828103825260158152602001807f4f6e6c7920766f74657220697320616c6c6f776564000000000000000000000081525060200191505060405180910390fd5b81600480811115610b0857fe5b60046000838152602001908152602001600020600a0160009054906101000a900460ff166004811115610b3757fe5b1415610bab576040517f08c379a000000000000000000000000000000000000000000000000000000000815260040180806020018281038252601f8152602001807f4f6e6c79206f70656e2070726f706f73616c732061726520616c6c6f7765640081525060200191505060405180910390fd5b600015156004600085815260200190815260200160002060060160003373ffffffffffffffffffffffffffffffffffffffff1673ffffffffffffffffffffffffffffffffffffffff16815260200190815260200160002060009054906101000a900460ff16151514610c85576040517f08c379a00000000000000000000000000000000000000000000000000000000081526004018080602001828103825260198152602001807f566f7465722063616e206f6e6c7920766f7465206f6e63652e0000000000000081525060200191505060405180910390fd5b60026004811115610c9257fe5b60046000858152602001908152602001600020600a0160009054906101000a900460ff166004811115610cc157fe5b1415610d35576040517f08c379a000000000000000000000000000000000000000000000000000000000815260040180806020018281038252601f8152602001807f43616e6e6f7420766f746520696620616c72656164792072656a65637465640081525060200191505060405180910390fd5b600460008481526020019081526020016000206007016000815480929190600101919050555060016004600085815260200190815260200160002060060160003373ffffffffffffffffffffffffffffffffffffffff1673ffffffffffffffffffffffffffffffffffffffff16815260200190815260200160002060006101000a81548160ff021916908315150217905550505050565b610dd4611320565b610e46576040517f08c379a00000000000000000000000000000000000000000000000000000000081526004018080602001828103825260208152602001807f4f776e61626c653a2063616c6c6572206973206e6f7420746865206f776e657281525060200191505060405180910390fd5b80600480811115610e5357fe5b60046000838152602001908152602001600020600a0160009054906101000a900460ff166004811115610e8257fe5b1415610ef6576040517f08c379a000000000000000000000000000000000000000000000000000000000815260040180806020018281038252601f8152602001807f4f6e6c79206f70656e2070726f706f73616c732061726520616c6c6f7765640081525060200191505060405180910390fd5b60036004811115610f0357fe5b60046000848152602001908152602001600020600a0160009054906101000a900460ff166004811115610f3257fe5b1480610f77575060026004811115610f4657fe5b60046000848152602001908152602001600020600a0160009054906101000a900460ff166004811115610f7557fe5b145b610fcc576040517f08c379a000000000000000000000000000000000000000000000000000000000815260040180806020018281038252602e815260200180612e8d602e913960400191505060405180910390fd5b6004806000848152602001908152602001600020600a0160006101000a81548160ff02191690836004811115610ffe57fe5b02179055505050565b60055481565b60001515600160003373ffffffffffffffffffffffffffffffffffffffff1673ffffffffffffffffffffffffffffffffffffffff16815260200190815260200160002060009054906101000a900460ff1615151461106a57600080fd5b60001515600360003373ffffffffffffffffffffffffffffffffffffffff1673ffffffffffffffffffffffffffffffffffffffff16815260200190815260200160002060009054906101000a900460ff161515146110c757600080fd5b60001515600260003373ffffffffffffffffffffffffffffffffffffffff1673ffffffffffffffffffffffffffffffffffffffff16815260200190815260200160002060009054906101000a900460ff1615151461112457600080fd5b61112c6112f7565b73ffffffffffffffffffffffffffffffffffffffff163373ffffffffffffffffffffffffffffffffffffffff16141561116457600080fd5b6001600360003373ffffffffffffffffffffffffffffffffffffffff1673ffffffffffffffffffffffffffffffffffffffff16815260200190815260200160002060006101000a81548160ff021916908315150217905550565b6111c6611320565b611238576040517f08c379a00000000000000000000000000000000000000000000000000000000081526004018080602001828103825260208152602001807f4f776e61626c653a2063616c6c6572206973206e6f7420746865206f776e657281525060200191505060405180910390fd5b600073ffffffffffffffffffffffffffffffffffffffff166000809054906101000a900473ffffffffffffffffffffffffffffffffffffffff1673ffffffffffffffffffffffffffffffffffffffff167f8be0079c531659141344cd1fd0a4f28419497f9722a3daafe3b4186f6b6457e060405160405180910390a360008060006101000a81548173ffffffffffffffffffffffffffffffffffffffff021916908373ffffffffffffffffffffffffffffffffffffffff160217905550565b60008060009054906101000a900473ffffffffffffffffffffffffffffffffffffffff16905090565b60008060009054906101000a900473ffffffffffffffffffffffffffffffffffffffff1673ffffffffffffffffffffffffffffffffffffffff16611362612b7b565b73ffffffffffffffffffffffffffffffffffffffff1614905090565b60001515600160003373ffffffffffffffffffffffffffffffffffffffff1673ffffffffffffffffffffffffffffffffffffffff16815260200190815260200160002060009054906101000a900460ff161515146113db57600080fd5b60001515600360003373ffffffffffffffffffffffffffffffffffffffff1673ffffffffffffffffffffffffffffffffffffffff16815260200190815260200160002060009054906101000a900460ff1615151461143857600080fd5b60001515600260003373ffffffffffffffffffffffffffffffffffffffff1673ffffffffffffffffffffffffffffffffffffffff16815260200190815260200160002060009054906101000a900460ff1615151461149557600080fd5b61149d6112f7565b73ffffffffffffffffffffffffffffffffffffffff163373ffffffffffffffffffffffffffffffffffffffff1614156114d557600080fd5b6001600260003373ffffffffffffffffffffffffffffffffffffffff1673ffffffffffffffffffffffffffffffffffffffff16815260200190815260200160002060006101000a81548160ff021916908315150217905550565b3360011515600260008373ffffffffffffffffffffffffffffffffffffffff1673ffffffffffffffffffffffffffffffffffffffff16815260200190815260200160002060009054906101000a900460ff161515146115f6576040517f08c379a00000000000000000000000000000000000000000000000000000000081526004018080602001828103825260188152602001807f4f6e6c7920617070726f76657220697320616c6c6f776564000000000000000081525060200191505060405180910390fd5b8160048081111561160357fe5b60046000838152602001908152602001600020600a0160009054906101000a900460ff16600481111561163257fe5b14156116a6576040517f08c379a000000000000000000000000000000000000000000000000000000000815260040180806020018281038252601f8152602001807f4f6e6c79206f70656e2070726f706f73616c732061726520616c6c6f7765640081525060200191505060405180910390fd5b6000600460008581526020019081526020016000206007015411611715576040517f08c379a000000000000000000000000000000000000000000000000000000000815260040180806020018281038252602d815260200180612e3a602d913960400191505060405180910390fd5b6002600460008581526020019081526020016000206008015411156117a2576040517f08c379a000000000000000000000000000000000000000000000000000000000815260040180806020018281038252601f8152602001807f50726f706f73616c20617070726f76616c73206e6f742065786365656420320081525060200191505060405180910390fd5b600260048111156117af57fe5b60046000858152602001908152602001600020600a0160009054906101000a900460ff1660048111156117de57fe5b1415611835576040517f08c379a0000000000000000000000000000000000000000000000000000000008152600401808060200182810382526022815260200180612ebb6022913960400191505060405180910390fd5b6004600084815260200190815260200160002060080160008154809291906001019190505550600460008481526020019081526020016000206005013390806001815401808255809150509060018203906000526020600020016000909192909190916101000a81548173ffffffffffffffffffffffffffffffffffffffff021916908373ffffffffffffffffffffffffffffffffffffffff16021790555050600260046000858152602001908152602001600020600801541415611f0757600360046000858152602001908152602001600020600a0160006101000a81548160ff0219169083600481111561192757fe5b021790555073__Proof_________________________________63fb1ace3460046000868152602001908152602001600020600001600460008781526020019081526020016000206001016004600088815260200190815260200160002060020160046000898152602001908152602001600020600301600460008a815260200190815260200160002060040160009054906101000a900473ffffffffffffffffffffffffffffffffffffffff16600460008b8152602001908152602001600020600501600460008c815260200190815260200160002060070154600460008d815260200190815260200160002060080154600460008e8152602001908152602001600020600a0160009054906101000a900460ff1660405160200180806020018060200180602001806020018a73ffffffffffffffffffffffffffffffffffffffff1673ffffffffffffffffffffffffffffffffffffffff16815260200180602001898152602001888152602001876004811115611aa257fe5b60ff16815260200186810386528f818154600181600116156101000203166002900481526020019150805460018160011615610100020316600290048015611b2b5780601f10611b0057610100808354040283529160200191611b2b565b820191906000526020600020905b815481529060010190602001808311611b0e57829003601f168201915b505086810385528e818154600181600116156101000203166002900481526020019150805460018160011615610100020316600290048015611bae5780601f10611b8357610100808354040283529160200191611bae565b820191906000526020600020905b815481529060010190602001808311611b9157829003601f168201915b505086810384528d818154600181600116156101000203166002900481526020019150805460018160011615610100020316600290048015611c315780601f10611c0657610100808354040283529160200191611c31565b820191906000526020600020905b815481529060010190602001808311611c1457829003601f168201915b505086810383528c818154600181600116156101000203166002900481526020019150805460018160011615610100020316600290048015611cb45780601f10611c8957610100808354040283529160200191611cb4565b820191906000526020600020905b815481529060010190602001808311611c9757829003601f168201915b505086810382528a8181548152602001915080548015611d2957602002820191906000526020600020905b8160009054906101000a900473ffffffffffffffffffffffffffffffffffffffff1673ffffffffffffffffffffffffffffffffffffffff1681526020019060010190808311611cdf575b50509e5050505050505050505050505050506040516020818303038152906040526040518263ffffffff1660e01b81526004018080602001828103825283818151815260200191508051906020019080838360005b83811015611d99578082015181840152602081019050611d7e565b50505050905090810190601f168015611dc65780820380516001836020036101000a031916815260200191505b509250505060206040518083038186803b158015611de357600080fd5b505af4158015611df7573d6000803e3d6000fd5b505050506040513d6020811015611e0d57600080fd5b810190808051906020019092919050505060046000858152602001908152602001600020600901819055506004600084815260200190815260200160002060040160009054906101000a900473ffffffffffffffffffffffffffffffffffffffff1673ffffffffffffffffffffffffffffffffffffffff166108fc6004600086815260200190815260200160002060070154600654029081150290604051600060405180830381858888f19350505050158015611ece573d6000803e3d6000fd5b507fa16937f614e5223e77ba73a12ac8a6f13e30239487839f53a08f164ead571157836040518082815260200191505060405180910390a15b505050565b3360011515600260008373ffffffffffffffffffffffffffffffffffffffff1673ffffffffffffffffffffffffffffffffffffffff16815260200190815260200160002060009054906101000a900460ff16151514611fd3576040517f08c379a00000000000000000000000000000000000000000000000000000000081526004018080602001828103825260188152602001807f4f6e6c7920617070726f76657220697320616c6c6f776564000000000000000081525060200191505060405180910390fd5b81600480811115611fe057fe5b60046000838152602001908152602001600020600a0160009054906101000a900460ff16600481111561200f57fe5b1415612083576040517f08c379a000000000000000000000000000000000000000000000000000000000815260040180806020018281038252601f8152602001807f4f6e6c79206f70656e2070726f706f73616c732061726520616c6c6f7765640081525060200191505060405180910390fd5b600460008481526020019081526020016000206005013390806001815401808255809150509060018203906000526020600020016000909192909190916101000a81548173ffffffffffffffffffffffffffffffffffffffff021916908373ffffffffffffffffffffffffffffffffffffffff16021790555050600260046000858152602001908152602001600020600a0160006101000a81548160ff0219169083600481111561213057fe5b02179055507f74a2ed7c97cf2527df2b8fa3fc2e553cc7326306cd0ef9fe1885765ede631390836040518082815260200191505060405180910390a1505050565b6004602052806000526040600020600091509050806000018054600181600116156101000203166002900480601f01602080910402602001604051908101604052809291908181526020018280546001816001161561010002031660029004801561221d5780601f106121f25761010080835404028352916020019161221d565b820191906000526020600020905b81548152906001019060200180831161220057829003601f168201915b505050505090806001018054600181600116156101000203166002900480601f0160208091040260200160405190810160405280929190818152602001828054600181600116156101000203166002900480156122bb5780601f10612290576101008083540402835291602001916122bb565b820191906000526020600020905b81548152906001019060200180831161229e57829003601f168201915b505050505090806002018054600181600116156101000203166002900480601f0160208091040260200160405190810160405280929190818152602001828054600181600116156101000203166002900480156123595780601f1061232e57610100808354040283529160200191612359565b820191906000526020600020905b81548152906001019060200180831161233c57829003601f168201915b505050505090806003018054600181600116156101000203166002900480601f0160208091040260200160405190810160405280929190818152602001828054600181600116156101000203166002900480156123f75780601f106123cc576101008083540402835291602001916123f7565b820191906000526020600020905b8154815290600101906020018083116123da57829003601f168201915b5050505050908060040160009054906101000a900473ffffffffffffffffffffffffffffffffffffffff169080600701549080600801549080600901549080600a0160009054906101000a900460ff16905089565b60016020528060005260406000206000915054906101000a900460ff1681565b60608060006060600080600060046000898152602001908152602001600020600001600460008a8152602001908152602001600020600101600460008b815260200190815260200160002060040160009054906101000a900473ffffffffffffffffffffffffffffffffffffffff16600460008c8152602001908152602001600020600501600460008d815260200190815260200160002060070154600460008e815260200190815260200160002060090154600460008f8152602001908152602001600020600a0160009054906101000a900460ff16868054600181600116156101000203166002900480601f0160208091040260200160405190810160405280929190818152602001828054600181600116156101000203166002900480156125d85780601f106125ad576101008083540402835291602001916125d8565b820191906000526020600020905b8154815290600101906020018083116125bb57829003601f168201915b50505050509650858054600181600116156101000203166002900480601f0160208091040260200160405190810160405280929190818152602001828054600181600116156101000203166002900480156126745780601f1061264957610100808354040283529160200191612674565b820191906000526020600020905b81548152906001019060200180831161265757829003601f168201915b50505050509550849450838054806020026020016040519081016040528092919081815260200182805480156126ff57602002820191906000526020600020905b8160009054906101000a900473ffffffffffffffffffffffffffffffffffffffff1673ffffffffffffffffffffffffffffffffffffffff16815260200190600101908083116126b5575b505050505093509650965096509650965096509650919395979092949650565b612727611320565b612799576040517f08c379a00000000000000000000000000000000000000000000000000000000081526004018080602001828103825260208152602001807f4f776e61626c653a2063616c6c6572206973206e6f7420746865206f776e657281525060200191505060405180910390fd5b6127a281612b83565b50565b6000801515600160003373ffffffffffffffffffffffffffffffffffffffff1673ffffffffffffffffffffffffffffffffffffffff16815260200190815260200160002060009054906101000a900460ff1615151461280357600080fd5b60001515600360003373ffffffffffffffffffffffffffffffffffffffff1673ffffffffffffffffffffffffffffffffffffffff16815260200190815260200160002060009054906101000a900460ff1615151461286057600080fd5b60001515600260003373ffffffffffffffffffffffffffffffffffffffff1673ffffffffffffffffffffffffffffffffffffffff16815260200190815260200160002060009054906101000a900460ff161515146128bd57600080fd5b6128c56112f7565b73ffffffffffffffffffffffffffffffffffffffff163373ffffffffffffffffffffffffffffffffffffffff1614156128fd57600080fd5b7f7ae0a340e564d88e9574479caf5d2e048d2c459db2c811dbed241b02998635a56005546040518082815260200191505060405180910390a16040518061014001604052808681526020018581526020018481526020018381526020013373ffffffffffffffffffffffffffffffffffffffff16815260200160026040519080825280602002602001820160405280156129a65781602001602082028038833980820191505090505b50815260200160008152602001600081526020016000801b8152602001600060048111156129d057fe5b8152506004600060055481526020019081526020016000206000820151816000019080519060200190612a04929190612cc7565b506020820151816001019080519060200190612a21929190612cc7565b506040820151816002019080519060200190612a3e929190612cc7565b506060820151816003019080519060200190612a5b929190612cc7565b5060808201518160040160006101000a81548173ffffffffffffffffffffffffffffffffffffffff021916908373ffffffffffffffffffffffffffffffffffffffff16021790555060a0820151816005019080519060200190612abf929190612d47565b5060c0820151816007015560e08201518160080155610100820151816009015561012082015181600a0160006101000a81548160ff02191690836004811115612b0457fe5b021790555090505060018060003373ffffffffffffffffffffffffffffffffffffffff1673ffffffffffffffffffffffffffffffffffffffff16815260200190815260200160002060006101000a81548160ff02191690831515021790555060016005540160058190555060019050949350505050565b600033905090565b600073ffffffffffffffffffffffffffffffffffffffff168173ffffffffffffffffffffffffffffffffffffffff161415612c09576040517f08c379a0000000000000000000000000000000000000000000000000000000008152600401808060200182810382526026815260200180612e676026913960400191505060405180910390fd5b8073ffffffffffffffffffffffffffffffffffffffff166000809054906101000a900473ffffffffffffffffffffffffffffffffffffffff1673ffffffffffffffffffffffffffffffffffffffff167f8be0079c531659141344cd1fd0a4f28419497f9722a3daafe3b4186f6b6457e060405160405180910390a3806000806101000a81548173ffffffffffffffffffffffffffffffffffffffff021916908373ffffffffffffffffffffffffffffffffffffffff16021790555050565b828054600181600116156101000203166002900490600052602060002090601f016020900481019282601f10612d0857805160ff1916838001178555612d36565b82800160010185558215612d36579182015b82811115612d35578251825591602001919060010190612d1a565b5b509050612d439190612dd1565b5090565b828054828255906000526020600020908101928215612dc0579160200282015b82811115612dbf5782518260006101000a81548173ffffffffffffffffffffffffffffffffffffffff021916908373ffffffffffffffffffffffffffffffffffffffff16021790555091602001919060010190612d67565b5b509050612dcd9190612df6565b5090565b612df391905b80821115612def576000816000905550600101612dd7565b5090565b90565b612e3691905b80821115612e3257600081816101000a81549073ffffffffffffffffffffffffffffffffffffffff021916905550600101612dfc565b5090565b9056fe50726f706f73616c20766f7465732073686f756c642062652070726573656e7420666f7220617070726f76616c4f776e61626c653a206e6577206f776e657220697320746865207a65726f206164647265737350726f706f73616c2073746174652073686f756c6420626520617070726f766564206f722072656a65637465642e43616e6e6f7420617070726f766520696620616c72656164792072656a6563746564a265627a7a72315820df9bc1e84c6eb2069b459688b4f71bf103d9d51aec6712ad494035d33a022fc864736f6c634300050c0032",
  "source": "pragma solidity ^0.5.0;\n\nimport \"./Proposal.sol\";\nimport \"./Proof.sol\";\nimport \"@openzeppelin/contracts/ownership/Ownable.sol\";\n\ncontract CityImprovement is Proposal, Ownable {\n    \n    // FYI How to retrieve the idea and for showing to UI.\n    // FYI modifier to restrict certain functions from approvers/editors.\n    // FYI modifier to only allow applicants for applying innovation ideas\n    // FYI should have a read proposal\n    // TODO should have applyForApprover(cannot propose and cannot vote) and applyAsVoter(cannot vote own proposal)\n    // TODO can only apply once(application must be approved first before application)\n    // TODO can only approve once(cannot approved alredy approved proposal)\n    // TODO can only vote once.\n    // TODO have a poll\n    // TODO add function voteForIdea\n    // TODO highest vote count should have highest priority\n    // FYI can't vote when already approved or when status is in progress.\n    // FYI approver role & voter role.\n    // FYI one vote payable and once approved the applicant/approver can withdraw the amount\n    // FYI try to create another proposer type(travel budget proposal), add destination.\n    // Propsal can have image(destination/blueprint) time stamped\n    // make the proof of existence as library\n    \n    // address of patent applicants.\n    // address should automatically marked as applicants if they submit a proposal.\n    mapping (address => bool) public applicants;\n    \n    // address of patent approvers.\n    mapping (address => bool) private approvers; // Mayor and Governor\n\n    // address of improvement voters\n    mapping (address => bool) private voters;\n    \n    // id of patent application\n    mapping (uint => ProposalDetails) public improvements;\n    \n    // patent counts\n    uint public improvementCounts;\n\n    // reward amount\n    uint private REWARD_AMOUNT = 200 wei;\n    \n    // Events\n    event LogNewIdea(uint ideaID);\n    event LogApproveIdea(uint ideaID);\n    event LogRejectIdea(uint ideaID);\n    \n    // Modifiers\n    modifier isApprover(address _address) {\n        require(approvers[_address] == true, \"Only approver is allowed\");\n        _;\n    }\n\n    modifier isVoter(address _address) {\n        require(voters[_address] == true, \"Only voter is allowed\");\n        _;\n    }\n\n    modifier isApplicant(address _address) {\n        require(applicants[_address] == true, \"Only applicant is allowed\");\n        _;\n    }\n\n    modifier notClosed(uint id) {\n        require(improvements[id].status != Proposal.State.Closed, \"Only open proposals are allowed\");\n        _;\n    }\n    \n    constructor() public {\n        improvementCounts = 0;\n    }\n\n    function readProposal(uint id) \n        public \n        view \n        returns(string memory title, \n            string memory description, \n            address applicant, \n            address payable[] memory approver,\n            uint votes,\n            bytes32 proof,\n            Proposal.State status) {\n        return (improvements[id].title, \n            improvements[id].description, \n            improvements[id].applicant, \n            improvements[id].approver,\n            improvements[id].votes,\n            improvements[id].proof,\n            improvements[id].status);\n    }\n    \n    /** \n     * @dev This function creates a new idea to apply for innovation approval.\n     **/\n    function submit(string memory title, string memory description, string memory problem, string memory solution) public returns(bool) {\n        require(applicants[msg.sender] == false);\n        require(voters[msg.sender] == false);\n        require(approvers[msg.sender] == false);\n        require(msg.sender != owner());\n        \n        emit LogNewIdea(improvementCounts);\n        improvements[improvementCounts] = Proposal.ProposalDetails({\n            title: title,\n            description: description,\n            problem: problem,\n            solution: solution,\n            applicant: msg.sender,\n            approver: new address payable[](2),\n            votes: 0,\n            approvals: 0,\n            proof: 0x0,\n            status: Proposal.State.Submitted\n        });\n        \n        // Add `msg.sender` to the applicant list.\n        applicants[msg.sender] = true;\n        improvementCounts = improvementCounts + 1;\n        return true;\n    }\n\n    /**\n     * @dev This function approves the idea by the randomly selected approver.\n     **/\n     function approve(uint id) public payable isApprover(msg.sender) notClosed(id){\n         require(improvements[id].votes > 0, \"Proposal votes should be present for approval\");\n         require(improvements[id].approvals <= 2, \"Proposal approvals not exceed 2\");\n         require(improvements[id].status != Proposal.State.Rejected, \"Cannot approve if already rejected\");\n\n         improvements[id].approvals++;\n         improvements[id].approver.push(msg.sender);\n         if (improvements[id].approvals == 2) {\n             improvements[id].status = Proposal.State.Approved;\n\n            //After approval notarize proposal.\n            improvements[id].proof = Proof.notarize(abi.encode(improvements[id].title, \n                                    improvements[id].description, \n                                    improvements[id].problem, \n                                    improvements[id].solution, \n                                    improvements[id].applicant, \n                                    improvements[id].approver, \n                                    improvements[id].votes, \n                                    improvements[id].approvals,\n                                    improvements[id].status));\n\n                                            // reward some tokens to applicant.\n            improvements[id].applicant.transfer(REWARD_AMOUNT * improvements[id].votes);\n            emit LogApproveIdea(id);\n         }\n     }\n     \n     /**\n      * @dev This function rejects the idea by the approver.\n      * @param id Proposal id.\n      **/\n      function reject(uint id) public isApprover(msg.sender) notClosed(id) {\n          // the one that approved cannot reject.\n          // no rewards shall be given to the applicant\n          improvements[id].approver.push(msg.sender);\n          improvements[id].status = Proposal.State.Rejected;\n          emit LogRejectIdea(id);\n      }\n\n       function vote(uint id) public isVoter(msg.sender) notClosed(id) {\n           require(improvements[id].voted[msg.sender] == false, \"Voter can only vote once.\");\n           require(improvements[id].status != Proposal.State.Rejected, \"Cannot vote if already rejected\");\n\n           improvements[id].votes++;\n           improvements[id].voted[msg.sender] = true;\n       }\n\n       function close(uint id) public onlyOwner notClosed(id) {\n           require(improvements[id].status == Proposal.State.Approved || improvements[id].status == Proposal.State.Rejected, \"Proposal state should be approved or rejected.\");\n           improvements[id].status = Proposal.State.Closed;\n       }\n\n           \n      /**\n       * @dev This function marks the @msg.sender to be an approver and added to the list of approvers.\n       * Note: Approvers can't can't be voters and can't be applicants.\n       **/\n       function applyForApprover() public {\n           require(applicants[msg.sender] == false);\n           require(voters[msg.sender] == false);\n           require(approvers[msg.sender] == false);\n           require(msg.sender != owner());\n\n           approvers[msg.sender] = true;\n       }\n\n      /**\n       * @dev This function marks the @msg.sender to be an voter and added to the list of voters.\n       * Note: Voters can't can't be approvers but can be applicants.\n       **/\n       function applyForVoter() public {\n           require(applicants[msg.sender] == false);\n           require(voters[msg.sender] == false);\n           require(approvers[msg.sender] == false);\n           require(msg.sender != owner());\n\n           voters[msg.sender] = true;\n       }\n}",
  "sourcePath": "/home/joseph-dev/ConsensysAcademy/proposal-dapp/contracts/CityImprovement.sol",
  "compiler": {
    "name": "solc",
    "version": "0.5.12+commit.7709ece9.Emscripten.clang"
  },
  "schemaVersion": "3.0.20",
  "updatedAt": "2020-01-14T15:09:49.577Z",
  "devdoc": {
    "methods": {
      "applyForApprover()": {
        "details": "This function marks the @msg.sender to be an approver and added to the list of approvers. Note: Approvers can't can't be voters and can't be applicants.*"
      },
      "applyForVoter()": {
        "details": "This function marks the @msg.sender to be an voter and added to the list of voters. Note: Voters can't can't be approvers but can be applicants.*"
      },
      "approve(uint256)": {
        "details": "This function approves the idea by the randomly selected approver.*"
      },
      "isOwner()": {
        "details": "Returns true if the caller is the current owner."
      },
      "owner()": {
        "details": "Returns the address of the current owner."
      },
      "reject(uint256)": {
        "details": "This function rejects the idea by the approver.",
        "params": {
          "id": "Proposal id.*"
        }
      },
      "renounceOwnership()": {
        "details": "Leaves the contract without owner. It will not be possible to call `onlyOwner` functions anymore. Can only be called by the current owner.     * NOTE: Renouncing ownership will leave the contract without an owner, thereby removing any functionality that is only available to the owner."
      },
      "submit(string,string,string,string)": {
        "details": "This function creates a new idea to apply for innovation approval.*"
      },
      "transferOwnership(address)": {
        "details": "Transfers ownership of the contract to a new account (`newOwner`). Can only be called by the current owner."
      }
    }
  },
  "userdoc": {
    "methods": {}
  }
}