{
  "contractName": "CityImprovement",
  "abi": [
    {
      "anonymous": false,
      "inputs": [
        {
          "indexed": false,
          "internalType": "uint256",
          "name": "id",
          "type": "uint256"
        }
      ],
      "name": "LogApprove",
      "type": "event"
    },
    {
      "anonymous": false,
      "inputs": [
        {
          "indexed": false,
          "internalType": "address",
          "name": "addr",
          "type": "address"
        }
      ],
      "name": "LogApproverApply",
      "type": "event"
    },
    {
      "anonymous": false,
      "inputs": [
        {
          "indexed": false,
          "internalType": "uint256",
          "name": "id",
          "type": "uint256"
        }
      ],
      "name": "LogClose",
      "type": "event"
    },
    {
      "anonymous": false,
      "inputs": [
        {
          "indexed": false,
          "internalType": "uint256",
          "name": "id",
          "type": "uint256"
        }
      ],
      "name": "LogReject",
      "type": "event"
    },
    {
      "anonymous": false,
      "inputs": [
        {
          "indexed": false,
          "internalType": "uint256",
          "name": "id",
          "type": "uint256"
        },
        {
          "indexed": false,
          "internalType": "address",
          "name": "addr",
          "type": "address"
        }
      ],
      "name": "LogSubmit",
      "type": "event"
    },
    {
      "anonymous": false,
      "inputs": [
        {
          "indexed": false,
          "internalType": "uint256",
          "name": "id",
          "type": "uint256"
        }
      ],
      "name": "LogVote",
      "type": "event"
    },
    {
      "anonymous": false,
      "inputs": [
        {
          "indexed": false,
          "internalType": "address",
          "name": "addr",
          "type": "address"
        }
      ],
      "name": "LogVoterApply",
      "type": "event"
    },
    {
      "anonymous": false,
      "inputs": [
        {
          "indexed": true,
          "internalType": "address",
          "name": "previousOwner",
          "type": "address"
        },
        {
          "indexed": true,
          "internalType": "address",
          "name": "newOwner",
          "type": "address"
        }
      ],
      "name": "OwnershipTransferred",
      "type": "event"
    },
    {
      "anonymous": false,
      "inputs": [
        {
          "indexed": false,
          "internalType": "address",
          "name": "account",
          "type": "address"
        }
      ],
      "name": "Paused",
      "type": "event"
    },
    {
      "anonymous": false,
      "inputs": [
        {
          "indexed": true,
          "internalType": "address",
          "name": "account",
          "type": "address"
        }
      ],
      "name": "PauserAdded",
      "type": "event"
    },
    {
      "anonymous": false,
      "inputs": [
        {
          "indexed": true,
          "internalType": "address",
          "name": "account",
          "type": "address"
        }
      ],
      "name": "PauserRemoved",
      "type": "event"
    },
    {
      "anonymous": false,
      "inputs": [
        {
          "indexed": false,
          "internalType": "address",
          "name": "account",
          "type": "address"
        }
      ],
      "name": "Unpaused",
      "type": "event"
    },
    {
      "constant": false,
      "inputs": [
        {
          "internalType": "address",
          "name": "account",
          "type": "address"
        }
      ],
      "name": "addPauser",
      "outputs": [],
      "payable": false,
      "stateMutability": "nonpayable",
      "type": "function"
    },
    {
      "constant": true,
      "inputs": [
        {
          "internalType": "address",
          "name": "",
          "type": "address"
        }
      ],
      "name": "applicants",
      "outputs": [
        {
          "internalType": "bool",
          "name": "",
          "type": "bool"
        }
      ],
      "payable": false,
      "stateMutability": "view",
      "type": "function"
    },
    {
      "constant": true,
      "inputs": [
        {
          "internalType": "address",
          "name": "",
          "type": "address"
        }
      ],
      "name": "approvers",
      "outputs": [
        {
          "internalType": "bool",
          "name": "",
          "type": "bool"
        }
      ],
      "payable": false,
      "stateMutability": "view",
      "type": "function"
    },
    {
      "constant": true,
      "inputs": [
        {
          "internalType": "uint256",
          "name": "",
          "type": "uint256"
        }
      ],
      "name": "improvements",
      "outputs": [
        {
          "internalType": "string",
          "name": "title",
          "type": "string"
        },
        {
          "internalType": "string",
          "name": "description",
          "type": "string"
        },
        {
          "internalType": "string",
          "name": "problem",
          "type": "string"
        },
        {
          "internalType": "string",
          "name": "solution",
          "type": "string"
        },
        {
          "internalType": "address payable",
          "name": "applicant",
          "type": "address"
        },
        {
          "internalType": "uint256",
          "name": "votes",
          "type": "uint256"
        },
        {
          "internalType": "uint256",
          "name": "approvals",
          "type": "uint256"
        },
        {
          "internalType": "bytes32",
          "name": "proof",
          "type": "bytes32"
        },
        {
          "internalType": "enum Proposal.State",
          "name": "status",
          "type": "uint8"
        }
      ],
      "payable": false,
      "stateMutability": "view",
      "type": "function"
    },
    {
      "constant": true,
      "inputs": [],
      "name": "isOwner",
      "outputs": [
        {
          "internalType": "bool",
          "name": "",
          "type": "bool"
        }
      ],
      "payable": false,
      "stateMutability": "view",
      "type": "function"
    },
    {
      "constant": true,
      "inputs": [
        {
          "internalType": "address",
          "name": "account",
          "type": "address"
        }
      ],
      "name": "isPauser",
      "outputs": [
        {
          "internalType": "bool",
          "name": "",
          "type": "bool"
        }
      ],
      "payable": false,
      "stateMutability": "view",
      "type": "function"
    },
    {
      "constant": true,
      "inputs": [],
      "name": "owner",
      "outputs": [
        {
          "internalType": "address",
          "name": "",
          "type": "address"
        }
      ],
      "payable": false,
      "stateMutability": "view",
      "type": "function"
    },
    {
      "constant": false,
      "inputs": [],
      "name": "pause",
      "outputs": [],
      "payable": false,
      "stateMutability": "nonpayable",
      "type": "function"
    },
    {
      "constant": true,
      "inputs": [],
      "name": "paused",
      "outputs": [
        {
          "internalType": "bool",
          "name": "",
          "type": "bool"
        }
      ],
      "payable": false,
      "stateMutability": "view",
      "type": "function"
    },
    {
      "constant": true,
      "inputs": [
        {
          "internalType": "address",
          "name": "dest",
          "type": "address"
        }
      ],
      "name": "payments",
      "outputs": [
        {
          "internalType": "uint256",
          "name": "",
          "type": "uint256"
        }
      ],
      "payable": false,
      "stateMutability": "view",
      "type": "function"
    },
    {
      "constant": false,
      "inputs": [],
      "name": "renounceOwnership",
      "outputs": [],
      "payable": false,
      "stateMutability": "nonpayable",
      "type": "function"
    },
    {
      "constant": false,
      "inputs": [],
      "name": "renouncePauser",
      "outputs": [],
      "payable": false,
      "stateMutability": "nonpayable",
      "type": "function"
    },
    {
      "constant": false,
      "inputs": [
        {
          "internalType": "address",
          "name": "newOwner",
          "type": "address"
        }
      ],
      "name": "transferOwnership",
      "outputs": [],
      "payable": false,
      "stateMutability": "nonpayable",
      "type": "function"
    },
    {
      "constant": false,
      "inputs": [],
      "name": "unpause",
      "outputs": [],
      "payable": false,
      "stateMutability": "nonpayable",
      "type": "function"
    },
    {
      "constant": true,
      "inputs": [
        {
          "internalType": "address",
          "name": "",
          "type": "address"
        }
      ],
      "name": "voters",
      "outputs": [
        {
          "internalType": "bool",
          "name": "",
          "type": "bool"
        }
      ],
      "payable": false,
      "stateMutability": "view",
      "type": "function"
    },
    {
      "constant": false,
      "inputs": [
        {
          "internalType": "address payable",
          "name": "payee",
          "type": "address"
        }
      ],
      "name": "withdrawPayments",
      "outputs": [],
      "payable": false,
      "stateMutability": "nonpayable",
      "type": "function"
    },
    {
      "constant": false,
      "inputs": [
        {
          "internalType": "address payable",
          "name": "payee",
          "type": "address"
        }
      ],
      "name": "withdrawPaymentsWithGas",
      "outputs": [],
      "payable": false,
      "stateMutability": "nonpayable",
      "type": "function"
    },
    {
      "constant": true,
      "inputs": [
        {
          "internalType": "uint256",
          "name": "id",
          "type": "uint256"
        }
      ],
      "name": "readProposal",
      "outputs": [
        {
          "internalType": "string",
          "name": "title",
          "type": "string"
        },
        {
          "internalType": "string",
          "name": "description",
          "type": "string"
        },
        {
          "internalType": "address",
          "name": "applicant",
          "type": "address"
        },
        {
          "internalType": "address payable[]",
          "name": "approver",
          "type": "address[]"
        },
        {
          "internalType": "uint256",
          "name": "votes",
          "type": "uint256"
        },
        {
          "internalType": "bytes32",
          "name": "proof",
          "type": "bytes32"
        },
        {
          "internalType": "enum Proposal.State",
          "name": "status",
          "type": "uint8"
        }
      ],
      "payable": false,
      "stateMutability": "view",
      "type": "function"
    },
    {
      "constant": false,
      "inputs": [
        {
          "internalType": "string",
          "name": "title",
          "type": "string"
        },
        {
          "internalType": "string",
          "name": "description",
          "type": "string"
        },
        {
          "internalType": "string",
          "name": "problem",
          "type": "string"
        },
        {
          "internalType": "string",
          "name": "solution",
          "type": "string"
        }
      ],
      "name": "submit",
      "outputs": [],
      "payable": false,
      "stateMutability": "nonpayable",
      "type": "function"
    },
    {
      "constant": false,
      "inputs": [
        {
          "internalType": "uint256",
          "name": "id",
          "type": "uint256"
        }
      ],
      "name": "approve",
      "outputs": [],
      "payable": true,
      "stateMutability": "payable",
      "type": "function"
    },
    {
      "constant": false,
      "inputs": [
        {
          "internalType": "uint256",
          "name": "id",
          "type": "uint256"
        }
      ],
      "name": "reject",
      "outputs": [],
      "payable": false,
      "stateMutability": "nonpayable",
      "type": "function"
    },
    {
      "constant": false,
      "inputs": [
        {
          "internalType": "uint256",
          "name": "id",
          "type": "uint256"
        }
      ],
      "name": "vote",
      "outputs": [],
      "payable": false,
      "stateMutability": "nonpayable",
      "type": "function"
    },
    {
      "constant": false,
      "inputs": [
        {
          "internalType": "uint256",
          "name": "id",
          "type": "uint256"
        }
      ],
      "name": "close",
      "outputs": [],
      "payable": false,
      "stateMutability": "nonpayable",
      "type": "function"
    },
    {
      "constant": false,
      "inputs": [],
      "name": "applyForApprover",
      "outputs": [],
      "payable": false,
      "stateMutability": "nonpayable",
      "type": "function"
    },
    {
      "constant": false,
      "inputs": [],
      "name": "applyForVoter",
      "outputs": [],
      "payable": false,
      "stateMutability": "nonpayable",
      "type": "function"
    },
    {
      "constant": true,
      "inputs": [],
      "name": "getNumberOfProposals",
      "outputs": [
        {
          "internalType": "uint256",
          "name": "",
          "type": "uint256"
        }
      ],
      "payable": false,
      "stateMutability": "view",
      "type": "function"
    },
    {
      "constant": true,
      "inputs": [
        {
          "internalType": "uint256",
          "name": "id",
          "type": "uint256"
        },
        {
          "internalType": "address",
          "name": "approver",
          "type": "address"
        }
      ],
      "name": "doneApproving",
      "outputs": [
        {
          "internalType": "bool",
          "name": "",
          "type": "bool"
        }
      ],
      "payable": false,
      "stateMutability": "view",
      "type": "function"
    },
    {
      "constant": true,
      "inputs": [
        {
          "internalType": "uint256",
          "name": "id",
          "type": "uint256"
        },
        {
          "internalType": "address",
          "name": "voter",
          "type": "address"
        }
      ],
      "name": "doneVoting",
      "outputs": [
        {
          "internalType": "bool",
          "name": "",
          "type": "bool"
        }
      ],
      "payable": false,
      "stateMutability": "view",
      "type": "function"
    }
  ],
  "bytecode": "0x6080604052604051620000129062000228565b604051809103906000f0801580156200002f573d6000803e3d6000fd5b50600080546001600160a01b0319166001600160a01b03929092169190911790556200005a620000dc565b600180546001600160a01b0319166001600160a01b0392831617908190556040519116906000907f8be0079c531659141344cd1fd0a4f28419497f9722a3daafe3b4186f6b6457e0908290a3620000cc620000bd6001600160e01b03620000dc16565b6001600160e01b03620000e016565b6003805460ff1916905562000236565b3390565b620000fb8160026200013260201b620031731790919060201c565b6040516001600160a01b038216907f6719d08c1888103bea251a4ed56406bd0c3e69723c8a1686e017e7bbe159b6f890600090a250565b6200014782826001600160e01b03620001bf16565b156200019a576040805162461bcd60e51b815260206004820152601f60248201527f526f6c65733a206163636f756e7420616c72656164792068617320726f6c6500604482015290519081900360640190fd5b6001600160a01b0316600090815260209190915260409020805460ff19166001179055565b60006001600160a01b038216620002085760405162461bcd60e51b815260040180806020018281038252602281526020018062003f0c6022913960400191505060405180910390fd5b506001600160a01b03166000908152602091909152604090205460ff1690565b6107f1806200371b83390190565b6134d580620002466000396000f3fe6080604052600436106101b75760003560e01c80638456cb59116100ec578063b8adaa111161008a578063d1eba6c711610064578063d1eba6c71461075b578063e2982c21146108e0578063f2fde38b14610913578063fdaa0cc714610946576101b7565b8063b8adaa11146104e7578063bf4f1e9814610511578063ccd6686314610728576101b7565b8063905d5e25116100c6578063905d5e2514610449578063a3ec138d1461045e578063b759f95414610491578063b7808b2e146104ae576101b7565b80638456cb59146103ee5780638da5cb5b146104035780638f32d59b14610434576101b7565b8063441822a111610159578063653cfa5911610133578063653cfa591461035e5780636ef8d66d14610391578063715018a6146103a657806382dc1ec4146103bb576101b7565b8063441822a11461030157806346fbf68e146103165780635c975abb14610349576101b7565b806312645ed41161019557806312645ed41461025957806331b3eb941461029257806333809b6c146102c55780633f4ba83a146102ec576101b7565b80630121b93f146101bc5780630a144391146101e85780630aebeb4e1461022f575b600080fd5b3480156101c857600080fd5b506101e6600480360360208110156101df57600080fd5b5035610b8e565b005b3480156101f457600080fd5b5061021b6004803603602081101561020b57600080fd5b50356001600160a01b0316610edf565b604080519115158252519081900360200190f35b34801561023b57600080fd5b506101e66004803603602081101561025257600080fd5b5035610ef4565b34801561026557600080fd5b5061021b6004803603604081101561027c57600080fd5b50803590602001356001600160a01b0316611135565b34801561029e57600080fd5b506101e6600480360360208110156102b557600080fd5b50356001600160a01b0316611179565b3480156102d157600080fd5b506102da6111df565b60408051918252519081900360200190f35b3480156102f857600080fd5b506101e6611235565b34801561030d57600080fd5b506101e6611327565b34801561032257600080fd5b5061021b6004803603602081101561033957600080fd5b50356001600160a01b0316611440565b34801561035557600080fd5b5061021b611453565b34801561036a57600080fd5b506101e66004803603602081101561038157600080fd5b50356001600160a01b031661145c565b34801561039d57600080fd5b506101e66114a7565b3480156103b257600080fd5b506101e66114b9565b3480156103c757600080fd5b506101e6600480360360208110156103de57600080fd5b50356001600160a01b031661155c565b3480156103fa57600080fd5b506101e66115ae565b34801561040f57600080fd5b50610418611675565b604080516001600160a01b039092168252519081900360200190f35b34801561044057600080fd5b5061021b611684565b34801561045557600080fd5b506101e66116aa565b34801561046a57600080fd5b5061021b6004803603602081101561048157600080fd5b50356001600160a01b03166117c3565b6101e6600480360360208110156104a757600080fd5b50356117d8565b3480156104ba57600080fd5b5061021b600480360360408110156104d157600080fd5b50803590602001356001600160a01b031661219b565b3480156104f357600080fd5b506101e66004803603602081101561050a57600080fd5b5035612238565b34801561051d57600080fd5b5061053b6004803603602081101561053457600080fd5b5035612553565b60405180806020018060200180602001806020018a6001600160a01b03166001600160a01b0316815260200189815260200188815260200187815260200186600581111561058557fe5b60ff16815260200185810385528e818151815260200191508051906020019080838360005b838110156105c25781810151838201526020016105aa565b50505050905090810190601f1680156105ef5780820380516001836020036101000a031916815260200191505b5085810384528d5181528d516020918201918f019080838360005b8381101561062257818101518382015260200161060a565b50505050905090810190601f16801561064f5780820380516001836020036101000a031916815260200191505b5085810383528c5181528c516020918201918e019080838360005b8381101561068257818101518382015260200161066a565b50505050905090810190601f1680156106af5780820380516001836020036101000a031916815260200191505b5085810382528b5181528b516020918201918d019080838360005b838110156106e25781810151838201526020016106ca565b50505050905090810190601f16801561070f5780820380516001836020036101000a031916815260200191505b509d505050505050505050505050505060405180910390f35b34801561073457600080fd5b5061021b6004803603602081101561074b57600080fd5b50356001600160a01b03166127ef565b34801561076757600080fd5b506107856004803603602081101561077e57600080fd5b5035612804565b604051808060200180602001886001600160a01b03166001600160a01b03168152602001806020018781526020018681526020018560058111156107c557fe5b60ff16815260200184810384528b818151815260200191508051906020019080838360005b838110156108025781810151838201526020016107ea565b50505050905090810190601f16801561082f5780820380516001836020036101000a031916815260200191505b5084810383528a5181528a516020918201918c019080838360005b8381101561086257818101518382015260200161084a565b50505050905090810190601f16801561088f5780820380516001836020036101000a031916815260200191505b508481038252885181528851602091820191808b01910280838360005b838110156108c45781810151838201526020016108ac565b505050509050019a505050505050505050505060405180910390f35b3480156108ec57600080fd5b506102da6004803603602081101561090357600080fd5b50356001600160a01b0316612b22565b34801561091f57600080fd5b506101e66004803603602081101561093657600080fd5b50356001600160a01b0316612ba2565b34801561095257600080fd5b506101e66004803603608081101561096957600080fd5b81019060208101813564010000000081111561098457600080fd5b82018360208201111561099657600080fd5b803590602001918460018302840111640100000000831117156109b857600080fd5b91908080601f0160208091040260200160405190810160405280939291908181526020018383808284376000920191909152509295949360208101935035915050640100000000811115610a0b57600080fd5b820183602082011115610a1d57600080fd5b80359060200191846001830284011164010000000083111715610a3f57600080fd5b91908080601f0160208091040260200160405190810160405280939291908181526020018383808284376000920191909152509295949360208101935035915050640100000000811115610a9257600080fd5b820183602082011115610aa457600080fd5b80359060200191846001830284011164010000000083111715610ac657600080fd5b91908080601f0160208091040260200160405190810160405280939291908181526020018383808284376000920191909152509295949360208101935035915050640100000000811115610b1957600080fd5b820183602082011115610b2b57600080fd5b80359060200191846001830284011164010000000083111715610b4d57600080fd5b91908080601f016020809104026020016040519081016040528093929190818152602001838380828437600092019190915250929550612c04945050505050565b3360008181526006602052604090205460ff161515600114610bf7576040805162461bcd60e51b815260206004820152601560248201527f4f6e6c7920766f74657220697320616c6c6f7765640000000000000000000000604482015290519081900360640190fd5b81600460078281548110610c0757fe5b60009182526020909120600a600b90920201015460ff166005811115610c2957fe5b1415610c7c576040805162461bcd60e51b815260206004820152601f60248201527f4f6e6c79206f70656e2070726f706f73616c732061726520616c6c6f77656400604482015290519081900360640190fd5b60035460ff1615610cc7576040805162461bcd60e51b815260206004820152601060248201526f14185d5cd8589b194e881c185d5cd95960821b604482015290519081900360640190fd5b600060078481548110610cd657fe5b60009182526020909120600a600b90920201015460ff166005811115610cf857fe5b14610d345760405162461bcd60e51b81526004018080602001828103825260298152602001806134786029913960400191505060405180910390fd5b60078381548110610d4157fe5b600091825260208083203384526006600b90930201919091019052604090205460ff1615610db6576040805162461bcd60e51b815260206004820152601960248201527f566f7465722063616e206f6e6c7920766f7465206f6e63652e00000000000000604482015290519081900360640190fd5b600260078481548110610dc557fe5b60009182526020909120600a600b90920201015460ff166005811115610de757fe5b1415610e3a576040805162461bcd60e51b815260206004820152601f60248201527f43616e6e6f7420766f746520696620616c72656164792072656a656374656400604482015290519081900360640190fd5b60078381548110610e4757fe5b90600052602060002090600b020160070160008154809291906001019190505550600160078481548110610e7757fe5b60009182526020808320338452600b929092029091016006018152604091829020805460ff191693151593909317909255805185815290517f6387485947507482674c11c0a0f1418b30f5e2fd196714c629bbd4e561828f71929181900390910190a1505050565b60056020526000908152604090205460ff1681565b610efc611684565b610f4d576040805162461bcd60e51b815260206004820181905260248201527f4f776e61626c653a2063616c6c6572206973206e6f7420746865206f776e6572604482015290519081900360640190fd5b80600460078281548110610f5d57fe5b60009182526020909120600a600b90920201015460ff166005811115610f7f57fe5b1415610fd2576040805162461bcd60e51b815260206004820152601f60248201527f4f6e6c79206f70656e2070726f706f73616c732061726520616c6c6f77656400604482015290519081900360640190fd5b60035460ff161561101d576040805162461bcd60e51b815260206004820152601060248201526f14185d5cd8589b194e881c185d5cd95960821b604482015290519081900360640190fd5b60036007838154811061102c57fe5b60009182526020909120600a600b90920201015460ff16600581111561104e57fe5b1480611088575060026007838154811061106457fe5b60009182526020909120600a600b90920201015460ff16600581111561108657fe5b145b6110c35760405162461bcd60e51b815260040180806020018281038252602e8152602001806133c1602e913960400191505060405180910390fd5b6004600783815481106110d257fe5b60009182526020909120600a600b9092020101805460ff191660018360058111156110f957fe5b02179055506040805183815290517f4b9b0f1aa3faaeeee0ef981e1c0dc91a646fd5365cc6d9f2a3c2792b931ba9399181900360200190a15050565b60006007838154811061114457fe5b600091825260208083206001600160a01b03861684526006600b90930201919091019052604090205460ff1690505b92915050565b60008054604080516351cff8d960e01b81526001600160a01b038581166004830152915191909216926351cff8d9926024808201939182900301818387803b1580156111c457600080fd5b505af11580156111d8573d6000803e3d6000fd5b5050505050565b60035460009060ff161561122d576040805162461bcd60e51b815260206004820152601060248201526f14185d5cd8589b194e881c185d5cd95960821b604482015290519081900360640190fd5b506007545b90565b611245611240612ea6565b611440565b6112805760405162461bcd60e51b815260040180806020018281038252603081526020018061333f6030913960400191505060405180910390fd5b60035460ff166112d7576040805162461bcd60e51b815260206004820152601460248201527f5061757361626c653a206e6f7420706175736564000000000000000000000000604482015290519081900360640190fd5b6003805460ff191690557f5db9ee0a495bf2e6ff9c91a7834c1ba4fdd244a5e8aa4e537bd38aeae4b073aa61130a612ea6565b604080516001600160a01b039092168252519081900360200190a1565b60035460ff1615611372576040805162461bcd60e51b815260206004820152601060248201526f14185d5cd8589b194e881c185d5cd95960821b604482015290519081900360640190fd5b3360009081526004602052604090205460ff161561138f57600080fd5b3360009081526006602052604090205460ff16156113ac57600080fd5b3360009081526005602052604090205460ff16156113c957600080fd5b6113d1611675565b6001600160a01b0316336001600160a01b031614156113ef57600080fd5b33600081815260066020908152604091829020805460ff19166001179055815192835290517f3b6d1122be20c447e0ffabe6b11504493f6711532b7376c380078ececacf21999281900390910190a1565b600061117360028363ffffffff612eaa16565b60035460ff1690565b6000805460408051633404b48d60e11b81526001600160a01b03858116600483015291519190921692636809691a926024808201939182900301818387803b1580156111c457600080fd5b6114b76114b2612ea6565b612f11565b565b6114c1611684565b611512576040805162461bcd60e51b815260206004820181905260248201527f4f776e61626c653a2063616c6c6572206973206e6f7420746865206f776e6572604482015290519081900360640190fd5b6001546040516000916001600160a01b0316907f8be0079c531659141344cd1fd0a4f28419497f9722a3daafe3b4186f6b6457e0908390a3600180546001600160a01b0319169055565b611567611240612ea6565b6115a25760405162461bcd60e51b815260040180806020018281038252603081526020018061333f6030913960400191505060405180910390fd5b6115ab81612f59565b50565b6115b9611240612ea6565b6115f45760405162461bcd60e51b815260040180806020018281038252603081526020018061333f6030913960400191505060405180910390fd5b60035460ff161561163f576040805162461bcd60e51b815260206004820152601060248201526f14185d5cd8589b194e881c185d5cd95960821b604482015290519081900360640190fd5b6003805460ff191660011790557f62e78cea01bee320cd4e420270b5ea74000d11b0c9f74754ebdbfc544b05a25861130a612ea6565b6001546001600160a01b031690565b6001546000906001600160a01b031661169b612ea6565b6001600160a01b031614905090565b60035460ff16156116f5576040805162461bcd60e51b815260206004820152601060248201526f14185d5cd8589b194e881c185d5cd95960821b604482015290519081900360640190fd5b3360009081526004602052604090205460ff161561171257600080fd5b3360009081526006602052604090205460ff161561172f57600080fd5b3360009081526005602052604090205460ff161561174c57600080fd5b611754611675565b6001600160a01b0316336001600160a01b0316141561177257600080fd5b33600081815260056020908152604091829020805460ff19166001179055815192835290517fc38871933b40c4ffa8d26c750fd2068c580d67b247afac95ad4448e74f5e6ef79281900390910190a1565b60066020526000908152604090205460ff1681565b3360008181526005602052604090205460ff16151560011461183c576040805162461bcd60e51b815260206004820152601860248201527713db9b1e48185c1c1c9bdd995c881a5cc8185b1b1bddd95960421b604482015290519081900360640190fd5b8160046007828154811061184c57fe5b60009182526020909120600a600b90920201015460ff16600581111561186e57fe5b14156118c1576040805162461bcd60e51b815260206004820152601f60248201527f4f6e6c79206f70656e2070726f706f73616c732061726520616c6c6f77656400604482015290519081900360640190fd5b60035460ff161561190c576040805162461bcd60e51b815260206004820152601060248201526f14185d5cd8589b194e881c185d5cd95960821b604482015290519081900360640190fd5b60006007848154811061191b57fe5b90600052602060002090600b020160070154116119695760405162461bcd60e51b815260040180806020018281038252602d815260200180613312602d913960400191505060405180910390fd5b60026007848154811061197857fe5b90600052602060002090600b02016008015411156119dd576040805162461bcd60e51b815260206004820152601f60248201527f50726f706f73616c20617070726f76616c73206e6f7420657863656564203200604482015290519081900360640190fd5b6000600784815481106119ec57fe5b60009182526020909120600a600b90920201015460ff166005811115611a0e57fe5b14611a4a5760405162461bcd60e51b81526004018080602001828103825260298152602001806134786029913960400191505060405180910390fd5b600060078481548110611a5957fe5b90600052602060002090600b0201600501805490501115611b075760078381548110611a8157fe5b90600052602060002090600b0201600501600081548110611a9e57fe5b6000918252602090912001546001600160a01b0316331415611b07576040805162461bcd60e51b815260206004820152601e60248201527f417070726f7665722063616e206f6e6c7920617070726f7665206f6e63650000604482015290519081900360640190fd5b60078381548110611b1457fe5b600091825260209091206008600b9092020101805460010190556007805484908110611b3c57fe5b600091825260208083206005600b9093020191909101805460018101825590835291200180546001600160a01b031916331790556007805484908110611b7e57fe5b90600052602060002090600b0201600801546002141561219657600360078481548110611ba757fe5b60009182526020909120600a600b9092020101805460ff19166001836005811115611bce57fe5b021790555073__Proof_________________________________63fb1ace3460078581548110611bfa57fe5b90600052602060002090600b020160000160078681548110611c1857fe5b90600052602060002090600b020160010160078781548110611c3657fe5b90600052602060002090600b020160020160078881548110611c5457fe5b90600052602060002090600b020160030160078981548110611c7257fe5b90600052602060002090600b020160040160009054906101000a90046001600160a01b031660078a81548110611ca457fe5b90600052602060002090600b020160050160078b81548110611cc257fe5b90600052602060002090600b02016007015460078c81548110611ce157fe5b90600052602060002090600b02016008015460078d81548110611d0057fe5b90600052602060002090600b0201600a0160009054906101000a900460ff1660405160200180806020018060200180602001806020018a6001600160a01b03166001600160a01b0316815260200180602001898152602001888152602001876005811115611d6a57fe5b60ff16815260200186810386528f818154600181600116156101000203166002900481526020019150805460018160011615610100020316600290048015611df35780601f10611dc857610100808354040283529160200191611df3565b820191906000526020600020905b815481529060010190602001808311611dd657829003601f168201915b505086810385528e54600260001961010060018416150201909116048082526020909101908f908015611e675780601f10611e3c57610100808354040283529160200191611e67565b820191906000526020600020905b815481529060010190602001808311611e4a57829003601f168201915b505086810384528d54600260001961010060018416150201909116048082526020909101908e908015611edb5780601f10611eb057610100808354040283529160200191611edb565b820191906000526020600020905b815481529060010190602001808311611ebe57829003601f168201915b505086810383528c54600260001961010060018416150201909116048082526020909101908d908015611f4f5780601f10611f2457610100808354040283529160200191611f4f565b820191906000526020600020905b815481529060010190602001808311611f3257829003601f168201915b505086810382528a8181548152602001915080548015611f9857602002820191906000526020600020905b81546001600160a01b03168152600190910190602001808311611f7a575b50509e5050505050505050505050505050506040516020818303038152906040526040518263ffffffff1660e01b81526004018080602001828103825283818151815260200191508051906020019080838360005b83811015612005578181015183820152602001611fed565b50505050905090810190601f1680156120325780820380516001836020036101000a031916815260200191505b509250505060206040518083038186803b15801561204f57600080fd5b505af4158015612063573d6000803e3d6000fd5b505050506040513d602081101561207957600080fd5b5051600780548590811061208957fe5b90600052602060002090600b020160090181905550612111600784815481106120ae57fe5b90600052602060002090600b020160040160009054906101000a90046001600160a01b031661210c600786815481106120e357fe5b90600052602060002090600b020160070154670de0b6b3a7640000612fa190919063ffffffff16565b613001565b6000600460006007868154811061212457fe5b60009182526020808320600b92909202909101600401546001600160a01b031683528281019390935260409182019020805460ff191693151593909317909255815185815291517f98c0bb6d6210814cc6a978e62068562220015c52cff19f9e6d948aece9d5ab4e9281900390910190a15b505050565b6000805b600784815481106121ac57fe5b90600052602060002090600b0201600501805490508160ff16101561222e57826001600160a01b0316600785815481106121e257fe5b90600052602060002090600b02016005018260ff168154811061220157fe5b6000918252602090912001546001600160a01b03161415612226576001915050611173565b60010161219f565b5060009392505050565b3360008181526005602052604090205460ff16151560011461229c576040805162461bcd60e51b815260206004820152601860248201527713db9b1e48185c1c1c9bdd995c881a5cc8185b1b1bddd95960421b604482015290519081900360640190fd5b816004600782815481106122ac57fe5b60009182526020909120600a600b90920201015460ff1660058111156122ce57fe5b1415612321576040805162461bcd60e51b815260206004820152601f60248201527f4f6e6c79206f70656e2070726f706f73616c732061726520616c6c6f77656400604482015290519081900360640190fd5b60035460ff161561236c576040805162461bcd60e51b815260206004820152601060248201526f14185d5cd8589b194e881c185d5cd95960821b604482015290519081900360640190fd5b60006007848154811061237b57fe5b90600052602060002090600b020160050180549050111561241357600783815481106123a357fe5b90600052602060002090600b02016005016000815481106123c057fe5b6000918252602090912001546001600160a01b03163314156124135760405162461bcd60e51b815260040180806020018281038252602c815260200180613395602c913960400191505060405180910390fd5b60006007848154811061242257fe5b60009182526020909120600a600b90920201015460ff16600581111561244457fe5b146124805760405162461bcd60e51b81526004018080602001828103825260298152602001806134786029913960400191505060405180910390fd5b6007838154811061248d57fe5b600091825260208083206005600b9093020191909101805460018101825590835291200180546001600160a01b031916331790556007805460029190859081106124d357fe5b60009182526020909120600a600b9092020101805460ff191660018360058111156124fa57fe5b021790555033600090815260046020908152604091829020805460ff19166001179055815185815291517fdc40839d55e815edf4d9e581b370ff6ddfa8ba7985ea1fa97103cd409f0136ee9281900390910190a1505050565b6007818154811061256057fe5b6000918252602091829020600b919091020180546040805160026001841615610100026000190190931692909204601f8101859004850283018501909152808252919350918391908301828280156125f95780601f106125ce576101008083540402835291602001916125f9565b820191906000526020600020905b8154815290600101906020018083116125dc57829003601f168201915b505050505090806001018054600181600116156101000203166002900480601f0160208091040260200160405190810160405280929190818152602001828054600181600116156101000203166002900480156126975780601f1061266c57610100808354040283529160200191612697565b820191906000526020600020905b81548152906001019060200180831161267a57829003601f168201915b50505060028085018054604080516020601f60001961010060018716150201909416959095049283018590048502810185019091528181529596959450909250908301828280156127295780601f106126fe57610100808354040283529160200191612729565b820191906000526020600020905b81548152906001019060200180831161270c57829003601f168201915b5050505060038301805460408051602060026001851615610100026000190190941693909304601f81018490048402820184019092528181529495949350908301828280156127b95780601f1061278e576101008083540402835291602001916127b9565b820191906000526020600020905b81548152906001019060200180831161279c57829003601f168201915b5050506004840154600785015460088601546009870154600a9097015495966001600160a01b0390931695919450925060ff1689565b60046020526000908152604090205460ff1681565b606080600060606000806000600360009054906101000a900460ff1615612865576040805162461bcd60e51b815260206004820152601060248201526f14185d5cd8589b194e881c185d5cd95960821b604482015290519081900360640190fd5b6007546128a35760405162461bcd60e51b81526004018080602001828103825260258152602001806133ef6025913960400191505060405180910390fd5b600788815481106128b057fe5b90600052602060002090600b0201600001600789815481106128ce57fe5b90600052602060002090600b020160010160078a815481106128ec57fe5b90600052602060002090600b020160040160009054906101000a90046001600160a01b031660078b8154811061291e57fe5b90600052602060002090600b020160050160078c8154811061293c57fe5b90600052602060002090600b02016007015460078d8154811061295b57fe5b90600052602060002090600b02016009015460078e8154811061297a57fe5b6000918252602091829020600a600b909202010154875460408051601f6002600019600186161561010002019094169390930492830185900485028101850190915281815260ff90921692899190830182828015612a195780601f106129ee57610100808354040283529160200191612a19565b820191906000526020600020905b8154815290600101906020018083116129fc57829003601f168201915b5050895460408051602060026001851615610100026000190190941693909304601f8101849004840282018401909252818152959c508b945092508401905082828015612aa75780601f10612a7c57610100808354040283529160200191612aa7565b820191906000526020600020905b815481529060010190602001808311612a8a57829003601f168201915b5050875460408051602080840282018101909252828152959b508994509092508401905082828015612b0257602002820191906000526020600020905b81546001600160a01b03168152600190910190602001808311612ae4575b505050505093509650965096509650965096509650919395979092949650565b60008054604080516371d4ed8d60e11b81526001600160a01b0385811660048301529151919092169163e3a9db1a916024808301926020929190829003018186803b158015612b7057600080fd5b505afa158015612b84573d6000803e3d6000fd5b505050506040513d6020811015612b9a57600080fd5b505192915050565b612baa611684565b612bfb576040805162461bcd60e51b815260206004820181905260248201527f4f776e61626c653a2063616c6c6572206973206e6f7420746865206f776e6572604482015290519081900360640190fd5b6115ab8161306b565b60035460ff1615612c4f576040805162461bcd60e51b815260206004820152601060248201526f14185d5cd8589b194e881c185d5cd95960821b604482015290519081900360640190fd5b3360009081526004602052604090205460ff1615612c6c57600080fd5b3360009081526006602052604090205460ff1615612c8957600080fd5b3360009081526005602052604090205460ff1615612ca657600080fd5b612cae611675565b6001600160a01b0316336001600160a01b03161415612ccc57600080fd5b60408051610140810182528581526020808201869052818301859052606082018490523360808301528251600080825281830190945260a083015260c0820183905260e0820183905261010082018390526101208201839052600780546001810180835591909452825180519194600b027fa66cc928b5edb82af9bd49922954155ab7b0942694bea4ce44661d9a8736c6880192612d6f928492909101906131f4565b506020828101518051612d8892600185019201906131f4565b5060408201518051612da49160028401916020909101906131f4565b5060608201518051612dc09160038401916020909101906131f4565b5060808201516004820180546001600160a01b0319166001600160a01b0390921691909117905560a08201518051612e02916005840191602090910190613272565b5060c0820151600782015560e082015160088201556101008201516009820155610120820151600a8201805460ff19166001836005811115612e4057fe5b02179055505033600081815260046020908152604091829020805460ff1916600117905560075482519081529081019290925280517f87548bfe9b4f8ecb6b1bc3a07fa980ae775360df21b3e966464afadee044941a945091829003019150a150505050565b3390565b60006001600160a01b038216612ef15760405162461bcd60e51b81526004018080602001828103825260228152602001806134566022913960400191505060405180910390fd5b506001600160a01b03166000908152602091909152604090205460ff1690565b612f2260028263ffffffff61310c16565b6040516001600160a01b038216907fcd265ebaf09df2871cc7bd4133404a235ba12eff2041bb89d9c714a2621c7c7e90600090a250565b612f6a60028263ffffffff61317316565b6040516001600160a01b038216907f6719d08c1888103bea251a4ed56406bd0c3e69723c8a1686e017e7bbe159b6f890600090a250565b600082612fb057506000611173565b82820282848281612fbd57fe5b0414612ffa5760405162461bcd60e51b81526004018080602001828103825260218152602001806134356021913960400191505060405180910390fd5b9392505050565b600080546040805163f340fa0160e01b81526001600160a01b0386811660048301529151919092169263f340fa019285926024808301939282900301818588803b15801561304e57600080fd5b505af1158015613062573d6000803e3d6000fd5b50505050505050565b6001600160a01b0381166130b05760405162461bcd60e51b815260040180806020018281038252602681526020018061336f6026913960400191505060405180910390fd5b6001546040516001600160a01b038084169216907f8be0079c531659141344cd1fd0a4f28419497f9722a3daafe3b4186f6b6457e090600090a3600180546001600160a01b0319166001600160a01b0392909216919091179055565b6131168282612eaa565b6131515760405162461bcd60e51b81526004018080602001828103825260218152602001806134146021913960400191505060405180910390fd5b6001600160a01b0316600090815260209190915260409020805460ff19169055565b61317d8282612eaa565b156131cf576040805162461bcd60e51b815260206004820152601f60248201527f526f6c65733a206163636f756e7420616c72656164792068617320726f6c6500604482015290519081900360640190fd5b6001600160a01b0316600090815260209190915260409020805460ff19166001179055565b828054600181600116156101000203166002900490600052602060002090601f016020900481019282601f1061323557805160ff1916838001178555613262565b82800160010185558215613262579182015b82811115613262578251825591602001919060010190613247565b5061326e9291506132d3565b5090565b8280548282559060005260206000209081019282156132c7579160200282015b828111156132c757825182546001600160a01b0319166001600160a01b03909116178255602090920191600190910190613292565b5061326e9291506132ed565b61123291905b8082111561326e57600081556001016132d9565b61123291905b8082111561326e5780546001600160a01b03191681556001016132f356fe50726f706f73616c20766f7465732073686f756c642062652070726573656e7420666f7220617070726f76616c506175736572526f6c653a2063616c6c657220646f6573206e6f742068617665207468652050617573657220726f6c654f776e61626c653a206e6577206f776e657220697320746865207a65726f2061646472657373466972737420617070726f7665722063616e6e6f742072656a65637420746865206170706c69636174696f6e50726f706f73616c2073746174652073686f756c6420626520617070726f766564206f722072656a65637465642e54686572652073686f756c6420626520612070726f706f73616c20746f2072656164206f6e526f6c65733a206163636f756e7420646f6573206e6f74206861766520726f6c65536166654d6174683a206d756c7469706c69636174696f6e206f766572666c6f77526f6c65733a206163636f756e7420697320746865207a65726f206164647265737350726f706f73616c207374617475732073686f756c64207374696c6c206265207375626d6974746564a265627a7a7231582093c457a8004691ada2c4a781ab62ac900ffcc36f6fd023bbf2bb574df6db7cb664736f6c6343000510003260806040526100156001600160e01b0361006f16565b600080546001600160a01b0319166001600160a01b0392831617908190556040805191909216815290517f4101e71e974f68df5e9730cc223280b41654676bbb052cdcc735c3337e64d2d9916020908290030190a1610073565b3390565b61076f806100826000396000f3fe6080604052600436106100655760003560e01c8063c6dbdf6111610043578063c6dbdf6114610105578063e3a9db1a14610136578063f340fa011461017b57610065565b80632348238c1461006a57806351cff8d91461009f5780636809691a146100d2575b600080fd5b34801561007657600080fd5b5061009d6004803603602081101561008d57600080fd5b50356001600160a01b03166101a1565b005b3480156100ab57600080fd5b5061009d600480360360208110156100c257600080fd5b50356001600160a01b03166102a6565b3480156100de57600080fd5b5061009d600480360360208110156100f557600080fd5b50356001600160a01b031661038d565b34801561011157600080fd5b5061011a610457565b604080516001600160a01b039092168252519081900360200190f35b34801561014257600080fd5b506101696004803603602081101561015957600080fd5b50356001600160a01b0316610466565b60408051918252519081900360200190f35b61009d6004803603602081101561019157600080fd5b50356001600160a01b0316610481565b6000546001600160a01b03166101b561055b565b6001600160a01b0316146101fa5760405162461bcd60e51b815260040180806020018281038252602c81526020018061070f602c913960400191505060405180910390fd5b6001600160a01b03811661023f5760405162461bcd60e51b815260040180806020018281038252602a8152602001806106e5602a913960400191505060405180910390fd5b6000805473ffffffffffffffffffffffffffffffffffffffff19166001600160a01b03838116919091179182905560408051929091168252517f4101e71e974f68df5e9730cc223280b41654676bbb052cdcc735c3337e64d2d9916020908290030190a150565b6000546001600160a01b03166102ba61055b565b6001600160a01b0316146102ff5760405162461bcd60e51b815260040180806020018281038252602c81526020018061070f602c913960400191505060405180910390fd5b6001600160a01b038116600081815260016020526040808220805490839055905190929183156108fc02918491818181858888f19350505050158015610349573d6000803e3d6000fd5b506040805182815290516001600160a01b038416917f7084f5476618d8e60b11ef0d7d3f06914655adb8793e28ff7f018d4c76d505d5919081900360200190a25050565b6000546001600160a01b03166103a161055b565b6001600160a01b0316146103e65760405162461bcd60e51b815260040180806020018281038252602c81526020018061070f602c913960400191505060405180910390fd5b6001600160a01b0381166000818152600160205260408120805491905590610414908263ffffffff61055f16565b6040805182815290516001600160a01b038416917f7084f5476618d8e60b11ef0d7d3f06914655adb8793e28ff7f018d4c76d505d5919081900360200190a25050565b6000546001600160a01b031690565b6001600160a01b031660009081526001602052604090205490565b6000546001600160a01b031661049561055b565b6001600160a01b0316146104da5760405162461bcd60e51b815260040180806020018281038252602c81526020018061070f602c913960400191505060405180910390fd5b6001600160a01b0381166000908152600160205260409020543490610505908263ffffffff61064916565b6001600160a01b038316600081815260016020908152604091829020939093558051848152905191927f2da466a7b24304f47e87fa2e1e5a81b9831ce54fec19055ce277ca2f39ba42c492918290030190a25050565b3390565b804710156105b4576040805162461bcd60e51b815260206004820152601d60248201527f416464726573733a20696e73756666696369656e742062616c616e6365000000604482015290519081900360640190fd5b6040516000906001600160a01b0384169083908381818185875af1925050503d80600081146105ff576040519150601f19603f3d011682016040523d82523d6000602084013e610604565b606091505b50509050806106445760405162461bcd60e51b815260040180806020018281038252603a8152602001806106ab603a913960400191505060405180910390fd5b505050565b6000828201838110156106a3576040805162461bcd60e51b815260206004820152601b60248201527f536166654d6174683a206164646974696f6e206f766572666c6f770000000000604482015290519081900360640190fd5b939250505056fe416464726573733a20756e61626c6520746f2073656e642076616c75652c20726563697069656e74206d617920686176652072657665727465645365636f6e646172793a206e6577207072696d61727920697320746865207a65726f20616464726573735365636f6e646172793a2063616c6c6572206973206e6f7420746865207072696d617279206163636f756e74a265627a7a7231582022f23029c82f911e493aa9e0deeff52543935a68c3826704c4adf3da7bb851cd64736f6c63430005100032526f6c65733a206163636f756e7420697320746865207a65726f2061646472657373",
  "source": "pragma solidity ^0.5.0;\n\nimport \"../proposal/Proposal.sol\";\nimport \"../utils/Proof.sol\";\nimport \"@openzeppelin/contracts/payment/PullPayment.sol\";\nimport \"@openzeppelin/contracts/ownership/Ownable.sol\";\nimport \"@openzeppelin/contracts/math/SafeMath.sol\";\nimport \"@openzeppelin/contracts/lifecycle/Pausable.sol\";\n\n/// @title Simulation for City improvment proposal system.\n/// @author Joseph Nicholas R. Alcantara\n/// @notice This contract for educational purposes only, \n///         this will simulate a City improvement which \n///         is a type of legal proposal.\n/// @dev All of the functionalities are experimental but are already unit tested.\ncontract CityImprovement is Proposal, PullPayment, Ownable, Pausable {\n        \n    using SafeMath for uint;\n\n    // address of patent applicants.\n    mapping (address => bool) public applicants;\n    \n    // address of patent approvers.\n    mapping (address => bool) public approvers;\n\n    // address of improvement voters\n    mapping (address => bool) public voters;\n    \n    // reward amount\n    uint constant private REWARD_AMOUNT = 1 ether;\n\n    // list of proposals\n    Proposal.ProposalDetails[] public improvements;\n    \n    // Modifiers\n    modifier isApprover(address _address) {\n        require(approvers[_address] == true, \"Only approver is allowed\");\n        _;\n    }\n\n    modifier isVoter(address _address) {\n        require(voters[_address] == true, \"Only voter is allowed\");\n        _;\n    }\n\n    modifier notClosed(uint id) {\n        require(improvements[id].status != Proposal.State.Closed, \"Only open proposals are allowed\");\n        _;\n    }\n\n    /// @dev Reads and returns the proposal by Id.\n    /// @param id Proposal id.\n    /// @return Proposal details public details.\n    function readProposal(uint id) \n        public \n        view \n        whenNotPaused\n        returns(string memory title, \n            string memory description, \n            address applicant, \n            address payable[] memory approver,\n            uint votes,\n            bytes32 proof,\n            Proposal.State status) {\n        require(improvements.length > 0, \"There should be a proposal to read on\");\n        return (improvements[id].title, \n            improvements[id].description, \n            improvements[id].applicant, \n            improvements[id].approver,\n            improvements[id].votes,\n            improvements[id].proof,\n            improvements[id].status);\n    }\n    \n    /// @dev Start of city improvement application.\n    /// @param title City improvement title.\n    /// @param description City improvement description.\n    /// @param problem City improvement problem it wishes to tackle.\n    /// @param solution Problem's solution.\n    /// @return Application result\n    function submit(string memory title, string memory description, string memory problem, string memory solution) public whenNotPaused {\n        require(applicants[msg.sender] == false);\n        require(voters[msg.sender] == false);\n        require(approvers[msg.sender] == false);\n        require(msg.sender != owner());\n        \n        improvements.push(Proposal.ProposalDetails({\n            title: title,\n            description: description,\n            problem: problem,\n            solution: solution,\n            applicant: msg.sender,\n            approver: new address payable[](0),\n            votes: 0,\n            approvals: 0,\n            proof: 0x0,\n            status: Proposal.State.Submitted\n        }));\n\n        applicants[msg.sender] = true;\n        emit LogSubmit(improvements.length, msg.sender);\n    }\n\n     /// @dev Approves the City improvement proposal. Application approval sents some reward amount to\n     ///      the applicant which will also vary depending on the number of votes.\n     /// @param id City improvement ID.\n     function approve(uint id) public payable isApprover(msg.sender) notClosed(id) whenNotPaused {\n         require(improvements[id].votes > 0, \"Proposal votes should be present for approval\");\n         require(improvements[id].approvals <= 2, \"Proposal approvals not exceed 2\");\n         require(improvements[id].status == Proposal.State.Submitted, \"Proposal status should still be submitted\");\n         if(improvements[id].approver.length > 0) {\n            require(msg.sender != improvements[id].approver[0], \"Approver can only approve once\");\n         }\n\n         improvements[id].approvals++;\n         improvements[id].approver.push(msg.sender);\n         if (improvements[id].approvals == 2) {\n             improvements[id].status = Proposal.State.Approved;\n\n            //After approval notarize proposal.\n            improvements[id].proof = Proof.notarize(abi.encode(improvements[id].title, \n                                    improvements[id].description, \n                                    improvements[id].problem, \n                                    improvements[id].solution, \n                                    improvements[id].applicant, \n                                    improvements[id].approver, \n                                    improvements[id].votes, \n                                    improvements[id].approvals,\n                                    improvements[id].status));\n\n            // reward some tokens to applicant.\n            _asyncTransfer(improvements[id].applicant, REWARD_AMOUNT.mul(improvements[id].votes));\n\n            // once approved applicant can submit, be a voter, or approver.\n            applicants[improvements[id].applicant] = false;\n\n            emit LogApprove(id);\n         }\n     }\n     \n      /// @dev This function rejects the idea by the approver.\n      /// @param id Proposal id.\n      function reject(uint id) public isApprover(msg.sender) notClosed(id) whenNotPaused {\n          // Checks if an approver already approved the proposal.\n          if(improvements[id].approver.length > 0) {\n            require(msg.sender != improvements[id].approver[0], \"First approver cannot reject the application\");\n          }\n          require(improvements[id].status == Proposal.State.Submitted, \"Proposal status should still be submitted\");\n          improvements[id].approver.push(msg.sender);\n          improvements[id].status = Proposal.State.Rejected;\n          applicants[msg.sender] = true;\n          emit LogReject(id);\n      }\n        \n       /// @dev This function rejects the idea by the approver.\n       /// @param id Proposal id.\n       function vote(uint id) public isVoter(msg.sender) notClosed(id) whenNotPaused {\n           require(improvements[id].status == Proposal.State.Submitted, \"Proposal status should still be submitted\");\n           require(improvements[id].voted[msg.sender] == false, \"Voter can only vote once.\");\n           require(improvements[id].status != Proposal.State.Rejected, \"Cannot vote if already rejected\");\n\n           improvements[id].votes++;\n           improvements[id].voted[msg.sender] = true;\n           emit LogVote(id);\n       }\n\n       /// @dev Owner only function to close a proposal when it is approved or rejected.\n       /// @param id Proposal id.\n       function close(uint id) public onlyOwner notClosed(id) whenNotPaused {\n           require(improvements[id].status == Proposal.State.Approved || improvements[id].status == Proposal.State.Rejected, \"Proposal state should be approved or rejected.\");\n           improvements[id].status = Proposal.State.Closed;\n           emit LogClose(id);\n       }\n\n       /// @dev Marks the caller as the an approver, which will be assigned as among the 2 to approve proposals.\n       function applyForApprover() public whenNotPaused {\n           require(applicants[msg.sender] == false);\n           require(voters[msg.sender] == false);\n           require(approvers[msg.sender] == false);\n           require(msg.sender != owner());\n\n           approvers[msg.sender] = true;\n           emit LogApproverApply(msg.sender);\n       }\n\n       /// @dev Marks the caller as a voter, which can then be vote for proposals.\n       function applyForVoter() public whenNotPaused {\n           require(applicants[msg.sender] == false);\n           require(voters[msg.sender] == false);\n           require(approvers[msg.sender] == false);\n           require(msg.sender != owner());\n\n           voters[msg.sender] = true;\n           emit LogVoterApply(msg.sender);\n       }\n\n       /// @dev Gets the number of proposals.\n       /// @return number of proposals\n       function getNumberOfProposals() public view whenNotPaused returns(uint)  {\n           return improvements.length;\n       }\n\n       /// @dev Helper function to know if approver already is done.\n       /// @return true/false if approver is found in proposal\n       function doneApproving(uint id, address approver) public view returns(bool) {\n           for (uint8 idx = 0; idx < improvements[id].approver.length; idx++) {\n               if (improvements[id].approver[idx] == approver ) {\n                 return true;  \n               } \n           }\n           return false;\n       }\n\n       /// @dev Helper function to know if voter already is done.\n       /// @return true/false if voter is found in proposal\n       function doneVoting(uint id, address voter) public view returns(bool) {\n           return improvements[id].voted[voter];\n       }\n}",
  "sourcePath": "/home/joseph-dev/ConsensysAcademy/proposal-dapp/contracts/city/CityImprovement.sol",
  "compiler": {
    "name": "solc",
    "version": "0.5.16+commit.9c3226ce.Emscripten.clang"
  },
  "schemaVersion": "3.0.21",
  "updatedAt": "2020-01-29T13:14:08.655Z",
  "networkType": "ethereum",
  "devdoc": {
    "author": "Joseph Nicholas R. Alcantara",
    "details": "All of the functionalities are experimental but are already unit tested.",
    "methods": {
      "applyForApprover()": {
        "details": "Marks the caller as the an approver, which will be assigned as among the 2 to approve proposals."
      },
      "applyForVoter()": {
        "details": "Marks the caller as a voter, which can then be vote for proposals."
      },
      "approve(uint256)": {
        "details": "Approves the City improvement proposal. Application approval sents some reward amount to      the applicant which will also vary depending on the number of votes.",
        "params": {
          "id": "City improvement ID."
        }
      },
      "close(uint256)": {
        "details": "Owner only function to close a proposal when it is approved or rejected.",
        "params": {
          "id": "Proposal id."
        }
      },
      "doneApproving(uint256,address)": {
        "details": "Helper function to know if approver already is done.",
        "return": "true/false if approver is found in proposal"
      },
      "doneVoting(uint256,address)": {
        "details": "Helper function to know if voter already is done.",
        "return": "true/false if voter is found in proposal"
      },
      "getNumberOfProposals()": {
        "details": "Gets the number of proposals.",
        "return": "number of proposals"
      },
      "isOwner()": {
        "details": "Returns true if the caller is the current owner."
      },
      "owner()": {
        "details": "Returns the address of the current owner."
      },
      "pause()": {
        "details": "Called by a pauser to pause, triggers stopped state."
      },
      "paused()": {
        "details": "Returns true if the contract is paused, and false otherwise."
      },
      "payments(address)": {
        "details": "Returns the payments owed to an address.",
        "params": {
          "dest": "The creditor's address."
        }
      },
      "readProposal(uint256)": {
        "details": "Reads and returns the proposal by Id.",
        "params": {
          "id": "Proposal id."
        },
        "return": "Proposal details public details."
      },
      "reject(uint256)": {
        "details": "This function rejects the idea by the approver.",
        "params": {
          "id": "Proposal id."
        }
      },
      "renounceOwnership()": {
        "details": "Leaves the contract without owner. It will not be possible to call `onlyOwner` functions anymore. Can only be called by the current owner.     * NOTE: Renouncing ownership will leave the contract without an owner, thereby removing any functionality that is only available to the owner."
      },
      "submit(string,string,string,string)": {
        "details": "Start of city improvement application.",
        "params": {
          "description": "City improvement description.",
          "problem": "City improvement problem it wishes to tackle.",
          "solution": "Problem's solution.",
          "title": "City improvement title."
        },
        "return": "Application result"
      },
      "transferOwnership(address)": {
        "details": "Transfers ownership of the contract to a new account (`newOwner`). Can only be called by the current owner."
      },
      "unpause()": {
        "details": "Called by a pauser to unpause, returns to normal state."
      },
      "vote(uint256)": {
        "details": "This function rejects the idea by the approver.",
        "params": {
          "id": "Proposal id."
        }
      },
      "withdrawPayments(address)": {
        "details": "Withdraw accumulated payments.     * Note that _any_ account can call this function, not just the `payee`. This means that contracts unaware of the `PullPayment` protocol can still receive funds this way, by having a separate account call {withdrawPayments}.     * NOTE: This function has been deprecated, use {withdrawPaymentsWithGas} instead. Calling contracts with fixed gas limits is an anti-pattern and may break contract interactions in network upgrades (hardforks). https://diligence.consensys.net/blog/2019/09/stop-using-soliditys-transfer-now/[Learn more.]",
        "params": {
          "payee": "Whose payments will be withdrawn."
        }
      },
      "withdrawPaymentsWithGas(address)": {
        "details": "Same as {withdrawPayments}, but forwarding all gas to the recipient.     * WARNING: Forwarding all gas opens the door to reentrancy vulnerabilities. Make sure you trust the recipient, or are either following the checks-effects-interactions pattern or using {ReentrancyGuard}.     * _Available since v2.4.0._"
      }
    },
    "title": "Simulation for City improvment proposal system."
  },
  "userdoc": {
    "methods": {},
    "notice": "This contract for educational purposes only,          this will simulate a City improvement which          is a type of legal proposal."
  }
}