{
  "contractName": "CityImprovement",
  "abi": [
    {
      "anonymous": false,
      "inputs": [
        {
          "indexed": false,
          "internalType": "uint256",
          "name": "id",
          "type": "uint256"
        }
      ],
      "name": "LogApprove",
      "type": "event"
    },
    {
      "anonymous": false,
      "inputs": [
        {
          "indexed": false,
          "internalType": "address",
          "name": "addr",
          "type": "address"
        }
      ],
      "name": "LogApproverApply",
      "type": "event"
    },
    {
      "anonymous": false,
      "inputs": [
        {
          "indexed": false,
          "internalType": "uint256",
          "name": "id",
          "type": "uint256"
        }
      ],
      "name": "LogClose",
      "type": "event"
    },
    {
      "anonymous": false,
      "inputs": [
        {
          "indexed": false,
          "internalType": "uint256",
          "name": "id",
          "type": "uint256"
        }
      ],
      "name": "LogReject",
      "type": "event"
    },
    {
      "anonymous": false,
      "inputs": [
        {
          "indexed": false,
          "internalType": "uint256",
          "name": "id",
          "type": "uint256"
        },
        {
          "indexed": false,
          "internalType": "address",
          "name": "addr",
          "type": "address"
        }
      ],
      "name": "LogSubmit",
      "type": "event"
    },
    {
      "anonymous": false,
      "inputs": [
        {
          "indexed": false,
          "internalType": "uint256",
          "name": "id",
          "type": "uint256"
        }
      ],
      "name": "LogVote",
      "type": "event"
    },
    {
      "anonymous": false,
      "inputs": [
        {
          "indexed": false,
          "internalType": "address",
          "name": "addr",
          "type": "address"
        }
      ],
      "name": "LogVoterApply",
      "type": "event"
    },
    {
      "anonymous": false,
      "inputs": [
        {
          "indexed": true,
          "internalType": "address",
          "name": "previousOwner",
          "type": "address"
        },
        {
          "indexed": true,
          "internalType": "address",
          "name": "newOwner",
          "type": "address"
        }
      ],
      "name": "OwnershipTransferred",
      "type": "event"
    },
    {
      "anonymous": false,
      "inputs": [
        {
          "indexed": false,
          "internalType": "address",
          "name": "account",
          "type": "address"
        }
      ],
      "name": "Paused",
      "type": "event"
    },
    {
      "anonymous": false,
      "inputs": [
        {
          "indexed": false,
          "internalType": "address",
          "name": "account",
          "type": "address"
        }
      ],
      "name": "Unpaused",
      "type": "event"
    },
    {
      "inputs": [
        {
          "internalType": "address",
          "name": "",
          "type": "address"
        }
      ],
      "name": "applicants",
      "outputs": [
        {
          "internalType": "bool",
          "name": "",
          "type": "bool"
        }
      ],
      "stateMutability": "view",
      "type": "function"
    },
    {
      "inputs": [
        {
          "internalType": "address",
          "name": "",
          "type": "address"
        }
      ],
      "name": "approvers",
      "outputs": [
        {
          "internalType": "bool",
          "name": "",
          "type": "bool"
        }
      ],
      "stateMutability": "view",
      "type": "function"
    },
    {
      "inputs": [
        {
          "internalType": "uint256",
          "name": "",
          "type": "uint256"
        }
      ],
      "name": "improvements",
      "outputs": [
        {
          "internalType": "string",
          "name": "title",
          "type": "string"
        },
        {
          "internalType": "string",
          "name": "description",
          "type": "string"
        },
        {
          "internalType": "string",
          "name": "problem",
          "type": "string"
        },
        {
          "internalType": "string",
          "name": "solution",
          "type": "string"
        },
        {
          "internalType": "address payable",
          "name": "applicant",
          "type": "address"
        },
        {
          "internalType": "uint256",
          "name": "votes",
          "type": "uint256"
        },
        {
          "internalType": "uint256",
          "name": "approvals",
          "type": "uint256"
        },
        {
          "internalType": "bytes32",
          "name": "proof",
          "type": "bytes32"
        },
        {
          "internalType": "enum Proposal.State",
          "name": "status",
          "type": "uint8"
        }
      ],
      "stateMutability": "view",
      "type": "function"
    },
    {
      "inputs": [],
      "name": "owner",
      "outputs": [
        {
          "internalType": "address",
          "name": "",
          "type": "address"
        }
      ],
      "stateMutability": "view",
      "type": "function"
    },
    {
      "inputs": [],
      "name": "paused",
      "outputs": [
        {
          "internalType": "bool",
          "name": "",
          "type": "bool"
        }
      ],
      "stateMutability": "view",
      "type": "function"
    },
    {
      "inputs": [
        {
          "internalType": "address",
          "name": "dest",
          "type": "address"
        }
      ],
      "name": "payments",
      "outputs": [
        {
          "internalType": "uint256",
          "name": "",
          "type": "uint256"
        }
      ],
      "stateMutability": "view",
      "type": "function"
    },
    {
      "inputs": [],
      "name": "renounceOwnership",
      "outputs": [],
      "stateMutability": "nonpayable",
      "type": "function"
    },
    {
      "inputs": [
        {
          "internalType": "address",
          "name": "newOwner",
          "type": "address"
        }
      ],
      "name": "transferOwnership",
      "outputs": [],
      "stateMutability": "nonpayable",
      "type": "function"
    },
    {
      "inputs": [
        {
          "internalType": "address",
          "name": "",
          "type": "address"
        }
      ],
      "name": "voters",
      "outputs": [
        {
          "internalType": "bool",
          "name": "",
          "type": "bool"
        }
      ],
      "stateMutability": "view",
      "type": "function"
    },
    {
      "inputs": [
        {
          "internalType": "address payable",
          "name": "payee",
          "type": "address"
        }
      ],
      "name": "withdrawPayments",
      "outputs": [],
      "stateMutability": "nonpayable",
      "type": "function"
    },
    {
      "inputs": [
        {
          "internalType": "uint256",
          "name": "id",
          "type": "uint256"
        }
      ],
      "name": "readProposal",
      "outputs": [
        {
          "internalType": "string",
          "name": "title",
          "type": "string"
        },
        {
          "internalType": "string",
          "name": "description",
          "type": "string"
        },
        {
          "internalType": "address",
          "name": "applicant",
          "type": "address"
        },
        {
          "internalType": "address payable[]",
          "name": "approver",
          "type": "address[]"
        },
        {
          "internalType": "uint256",
          "name": "votes",
          "type": "uint256"
        },
        {
          "internalType": "bytes32",
          "name": "proof",
          "type": "bytes32"
        },
        {
          "internalType": "enum Proposal.State",
          "name": "status",
          "type": "uint8"
        }
      ],
      "stateMutability": "view",
      "type": "function"
    },
    {
      "inputs": [
        {
          "internalType": "string",
          "name": "title",
          "type": "string"
        },
        {
          "internalType": "string",
          "name": "description",
          "type": "string"
        },
        {
          "internalType": "string",
          "name": "problem",
          "type": "string"
        },
        {
          "internalType": "string",
          "name": "solution",
          "type": "string"
        }
      ],
      "name": "submit",
      "outputs": [],
      "stateMutability": "nonpayable",
      "type": "function"
    },
    {
      "inputs": [
        {
          "internalType": "uint256",
          "name": "id",
          "type": "uint256"
        }
      ],
      "name": "approve",
      "outputs": [],
      "stateMutability": "payable",
      "type": "function"
    },
    {
      "inputs": [
        {
          "internalType": "uint256",
          "name": "id",
          "type": "uint256"
        }
      ],
      "name": "reject",
      "outputs": [],
      "stateMutability": "nonpayable",
      "type": "function"
    },
    {
      "inputs": [
        {
          "internalType": "uint256",
          "name": "id",
          "type": "uint256"
        }
      ],
      "name": "vote",
      "outputs": [],
      "stateMutability": "nonpayable",
      "type": "function"
    },
    {
      "inputs": [
        {
          "internalType": "uint256",
          "name": "id",
          "type": "uint256"
        }
      ],
      "name": "close",
      "outputs": [],
      "stateMutability": "nonpayable",
      "type": "function"
    },
    {
      "inputs": [],
      "name": "applyForApprover",
      "outputs": [],
      "stateMutability": "nonpayable",
      "type": "function"
    },
    {
      "inputs": [],
      "name": "applyForVoter",
      "outputs": [],
      "stateMutability": "nonpayable",
      "type": "function"
    },
    {
      "inputs": [],
      "name": "getNumberOfProposals",
      "outputs": [
        {
          "internalType": "uint256",
          "name": "",
          "type": "uint256"
        }
      ],
      "stateMutability": "view",
      "type": "function"
    },
    {
      "inputs": [
        {
          "internalType": "uint256",
          "name": "id",
          "type": "uint256"
        },
        {
          "internalType": "address",
          "name": "approver",
          "type": "address"
        }
      ],
      "name": "doneApproving",
      "outputs": [
        {
          "internalType": "bool",
          "name": "",
          "type": "bool"
        }
      ],
      "stateMutability": "view",
      "type": "function"
    },
    {
      "inputs": [
        {
          "internalType": "uint256",
          "name": "id",
          "type": "uint256"
        },
        {
          "internalType": "address",
          "name": "voter",
          "type": "address"
        }
      ],
      "name": "doneVoting",
      "outputs": [
        {
          "internalType": "bool",
          "name": "",
          "type": "bool"
        }
      ],
      "stateMutability": "view",
      "type": "function"
    }
  ],
  "bytecode": "0x60a06040523480156200001157600080fd5b506040516200002090620000b8565b604051809103906000f0801580156200003d573d6000803e3d6000fd5b506001600160a01b0316608052620000553362000068565b6000805460ff60a01b19169055620000c6565b600080546001600160a01b038381166001600160a01b0319831681178455604051919092169283917f8be0079c531659141344cd1fd0a4f28419497f9722a3daafe3b4186f6b6457e09190a35050565b6105a980620028f983390190565b608051612809620000f0600039600081816109a301528181611c6e015261200e01526128096000f3fe60806040526004361061013a5760003560e01c8063905d5e25116100bb578063bf4f1e981161007f578063e2982c2111610059578063e2982c21146103ca578063f2fde38b146103ea578063fdaa0cc71461040a57600080fd5b8063bf4f1e9814610332578063ccd6686314610367578063d1eba6c71461039757600080fd5b8063905d5e251461029a578063a3ec138d146102af578063b759f954146102df578063b7808b2e146102f2578063b8adaa111461031257600080fd5b806333809b6c1161010257806333809b6c14610206578063441822a1146102295780635c975abb1461023e578063715018a61461025d5780638da5cb5b1461027257600080fd5b80630121b93f1461013f5780630a144391146101615780630aebeb4e146101a657806312645ed4146101c657806331b3eb94146101e6575b600080fd5b34801561014b57600080fd5b5061015f61015a3660046120ea565b61042a565b005b34801561016d57600080fd5b5061019161017c366004612118565b60026020526000908152604090205460ff1681565b60405190151581526020015b60405180910390f35b3480156101b257600080fd5b5061015f6101c13660046120ea565b61073d565b3480156101d257600080fd5b506101916101e1366004612135565b61093a565b3480156101f257600080fd5b5061015f610201366004612118565b610984565b34801561021257600080fd5b5061021b610a02565b60405190815260200161019d565b34801561023557600080fd5b5061015f610a13565b34801561024a57600080fd5b50600054600160a01b900460ff16610191565b34801561026957600080fd5b5061015f610ada565b34801561027e57600080fd5b506000546040516001600160a01b03909116815260200161019d565b3480156102a657600080fd5b5061015f610aee565b3480156102bb57600080fd5b506101916102ca366004612118565b60036020526000908152604090205460ff1681565b61015f6102ed3660046120ea565b610baf565b3480156102fe57600080fd5b5061019161030d366004612135565b6112e4565b34801561031e57600080fd5b5061015f61032d3660046120ea565b61139c565b34801561033e57600080fd5b5061035261034d3660046120ea565b6116a2565b60405161019d999897969594939291906121e3565b34801561037357600080fd5b50610191610382366004612118565b60016020526000908152604090205460ff1681565b3480156103a357600080fd5b506103b76103b23660046120ea565b61192e565b60405161019d9796959493929190612273565b3480156103d657600080fd5b5061021b6103e5366004612118565b611c4c565b3480156103f657600080fd5b5061015f610405366004612118565b611cdb565b34801561041657600080fd5b5061015f6104253660046123b2565b611d54565b3360008181526003602052604090205460ff1615156001146104935760405162461bcd60e51b815260206004820152601560248201527f4f6e6c7920766f74657220697320616c6c6f776564000000000000000000000060448201526064015b60405180910390fd5b8160048082815481106104a8576104a861245f565b60009182526020909120600a600b90920201015460ff1660058111156104d0576104d06121ab565b0361051d5760405162461bcd60e51b815260206004820152601f60248201527f4f6e6c79206f70656e2070726f706f73616c732061726520616c6c6f77656400604482015260640161048a565b610525611ee5565b60006004848154811061053a5761053a61245f565b60009182526020909120600a600b90920201015460ff166005811115610562576105626121ab565b1461057f5760405162461bcd60e51b815260040161048a90612475565b600483815481106105925761059261245f565b600091825260208083203384526006600b90930201919091019052604090205460ff16156106025760405162461bcd60e51b815260206004820152601960248201527f566f7465722063616e206f6e6c7920766f7465206f6e63652e00000000000000604482015260640161048a565b6002600484815481106106175761061761245f565b60009182526020909120600a600b90920201015460ff16600581111561063f5761063f6121ab565b0361068c5760405162461bcd60e51b815260206004820152601f60248201527f43616e6e6f7420766f746520696620616c72656164792072656a656374656400604482015260640161048a565b6004838154811061069f5761069f61245f565b6000918252602082206007600b90920201018054916106bd836124d4565b91905055506001600484815481106106d7576106d761245f565b60009182526020808320338452600b929092029091016006018152604091829020805460ff191693151593909317909255518481527f6387485947507482674c11c0a0f1418b30f5e2fd196714c629bbd4e561828f7191015b60405180910390a1505050565b610745611f32565b80600480828154811061075a5761075a61245f565b60009182526020909120600a600b90920201015460ff166005811115610782576107826121ab565b036107cf5760405162461bcd60e51b815260206004820152601f60248201527f4f6e6c79206f70656e2070726f706f73616c732061726520616c6c6f77656400604482015260640161048a565b6107d7611ee5565b6003600483815481106107ec576107ec61245f565b60009182526020909120600a600b90920201015460ff166005811115610814576108146121ab565b148061085a57506002600483815481106108305761083061245f565b60009182526020909120600a600b90920201015460ff166005811115610858576108586121ab565b145b6108bd5760405162461bcd60e51b815260206004820152602e60248201527f50726f706f73616c2073746174652073686f756c6420626520617070726f766560448201526d321037b9103932b532b1ba32b21760911b606482015260840161048a565b60048083815481106108d1576108d161245f565b60009182526020909120600a600b9092020101805460ff191660018360058111156108fe576108fe6121ab565b02179055506040518281527f4b9b0f1aa3faaeeee0ef981e1c0dc91a646fd5365cc6d9f2a3c2792b931ba9399060200160405180910390a15050565b60006004838154811061094f5761094f61245f565b600091825260208083206001600160a01b03861684526006600b90930201919091019052604090205460ff1690505b92915050565b6040516351cff8d960e01b81526001600160a01b0382811660048301527f000000000000000000000000000000000000000000000000000000000000000016906351cff8d990602401600060405180830381600087803b1580156109e757600080fd5b505af11580156109fb573d6000803e3d6000fd5b5050505050565b6000610a0c611ee5565b5060045490565b610a1b611ee5565b3360009081526001602052604090205460ff1615610a3857600080fd5b3360009081526003602052604090205460ff1615610a5557600080fd5b3360009081526002602052604090205460ff1615610a7257600080fd5b6000546001600160a01b03163303610a8957600080fd5b33600081815260036020908152604091829020805460ff1916600117905590519182527f3b6d1122be20c447e0ffabe6b11504493f6711532b7376c380078ececacf219991015b60405180910390a1565b610ae2611f32565b610aec6000611f8c565b565b610af6611ee5565b3360009081526001602052604090205460ff1615610b1357600080fd5b3360009081526003602052604090205460ff1615610b3057600080fd5b3360009081526002602052604090205460ff1615610b4d57600080fd5b6000546001600160a01b03163303610b6457600080fd5b33600081815260026020908152604091829020805460ff1916600117905590519182527fc38871933b40c4ffa8d26c750fd2068c580d67b247afac95ad4448e74f5e6ef79101610ad0565b3360008181526002602052604090205460ff161515600114610c0e5760405162461bcd60e51b815260206004820152601860248201527713db9b1e48185c1c1c9bdd995c881a5cc8185b1b1bddd95960421b604482015260640161048a565b816004808281548110610c2357610c2361245f565b60009182526020909120600a600b90920201015460ff166005811115610c4b57610c4b6121ab565b03610c985760405162461bcd60e51b815260206004820152601f60248201527f4f6e6c79206f70656e2070726f706f73616c732061726520616c6c6f77656400604482015260640161048a565b610ca0611ee5565b600060048481548110610cb557610cb561245f565b90600052602060002090600b02016007015411610d2a5760405162461bcd60e51b815260206004820152602d60248201527f50726f706f73616c20766f7465732073686f756c642062652070726573656e7460448201526c08199bdc88185c1c1c9bdd985b609a1b606482015260840161048a565b600260048481548110610d3f57610d3f61245f565b90600052602060002090600b0201600801541115610d9f5760405162461bcd60e51b815260206004820152601f60248201527f50726f706f73616c20617070726f76616c73206e6f7420657863656564203200604482015260640161048a565b600060048481548110610db457610db461245f565b60009182526020909120600a600b90920201015460ff166005811115610ddc57610ddc6121ab565b14610df95760405162461bcd60e51b815260040161048a90612475565b600060048481548110610e0e57610e0e61245f565b90600052602060002090600b0201600501805490501115610ec25760048381548110610e3c57610e3c61245f565b90600052602060002090600b0201600501600081548110610e5f57610e5f61245f565b6000918252602090912001546001600160a01b03163303610ec25760405162461bcd60e51b815260206004820152601e60248201527f417070726f7665722063616e206f6e6c7920617070726f7665206f6e63650000604482015260640161048a565b60048381548110610ed557610ed561245f565b6000918252602082206008600b9092020101805491610ef3836124d4565b919050555060048381548110610f0b57610f0b61245f565b600091825260208083206005600b9093020191909101805460018101825590835291200180546001600160a01b031916331790556004805484908110610f5357610f5361245f565b90600052602060002090600b0201600801546002036112df57600360048481548110610f8157610f8161245f565b60009182526020909120600a600b9092020101805460ff19166001836005811115610fae57610fae6121ab565b021790555073__Proof_________________________________63fb1ace3460048581548110610fe057610fe061245f565b90600052602060002090600b0201600001600486815481106110045761100461245f565b90600052602060002090600b0201600101600487815481106110285761102861245f565b90600052602060002090600b02016002016004888154811061104c5761104c61245f565b90600052602060002090600b0201600301600489815481106110705761107061245f565b90600052602060002090600b020160040160009054906101000a90046001600160a01b031660048a815481106110a8576110a861245f565b90600052602060002090600b020160050160048b815481106110cc576110cc61245f565b90600052602060002090600b02016007015460048c815481106110f1576110f161245f565b90600052602060002090600b02016008015460048d815481106111165761111661245f565b6000918252602091829020600a600b9092020101546040516111469a999897969594939260ff90921691016125a4565b6040516020818303038152906040526040518263ffffffff1660e01b81526004016111719190612663565b602060405180830381865af415801561118e573d6000803e3d6000fd5b505050506040513d601f19601f820116820180604052508101906111b29190612676565b600484815481106111c5576111c561245f565b90600052602060002090600b020160090181905550611259600484815481106111f0576111f061245f565b90600052602060002090600b020160040160009054906101000a90046001600160a01b03166112546004868154811061122b5761122b61245f565b90600052602060002090600b020160070154670de0b6b3a7640000611fdc90919063ffffffff16565b611fef565b600060016000600486815481106112725761127261245f565b60009182526020808320600b92909202909101600401546001600160a01b031683528281019390935260409182019020805460ff19169315159390931790925590518481527f98c0bb6d6210814cc6a978e62068562220015c52cff19f9e6d948aece9d5ab4e9101610730565b505050565b6000805b600484815481106112fb576112fb61245f565b90600052602060002090600b0201600501805490508160ff16101561139257826001600160a01b0316600485815481106113375761133761245f565b90600052602060002090600b02016005018260ff168154811061135c5761135c61245f565b6000918252602090912001546001600160a01b03160361138057600191505061097e565b8061138a8161268f565b9150506112e8565b5060009392505050565b3360008181526002602052604090205460ff1615156001146113fb5760405162461bcd60e51b815260206004820152601860248201527713db9b1e48185c1c1c9bdd995c881a5cc8185b1b1bddd95960421b604482015260640161048a565b8160048082815481106114105761141061245f565b60009182526020909120600a600b90920201015460ff166005811115611438576114386121ab565b036114855760405162461bcd60e51b815260206004820152601f60248201527f4f6e6c79206f70656e2070726f706f73616c732061726520616c6c6f77656400604482015260640161048a565b61148d611ee5565b6000600484815481106114a2576114a261245f565b90600052602060002090600b020160050180549050111561156b57600483815481106114d0576114d061245f565b90600052602060002090600b02016005016000815481106114f3576114f361245f565b6000918252602090912001546001600160a01b0316330361156b5760405162461bcd60e51b815260206004820152602c60248201527f466972737420617070726f7665722063616e6e6f742072656a6563742074686560448201526b1030b8383634b1b0ba34b7b760a11b606482015260840161048a565b6000600484815481106115805761158061245f565b60009182526020909120600a600b90920201015460ff1660058111156115a8576115a86121ab565b146115c55760405162461bcd60e51b815260040161048a90612475565b600483815481106115d8576115d861245f565b600091825260208083206005600b9093020191909101805460018101825590835291200180546001600160a01b031916331790556004805460029190859081106116245761162461245f565b60009182526020909120600a600b9092020101805460ff19166001836005811115611651576116516121ab565b021790555033600090815260016020818152604092839020805460ff191690921790915590518481527fdc40839d55e815edf4d9e581b370ff6ddfa8ba7985ea1fa97103cd409f0136ee9101610730565b600481815481106116b257600080fd5b90600052602060002090600b02016000915090508060000180546116d5906124ed565b80601f0160208091040260200160405190810160405280929190818152602001828054611701906124ed565b801561174e5780601f106117235761010080835404028352916020019161174e565b820191906000526020600020905b81548152906001019060200180831161173157829003601f168201915b505050505090806001018054611763906124ed565b80601f016020809104026020016040519081016040528092919081815260200182805461178f906124ed565b80156117dc5780601f106117b1576101008083540402835291602001916117dc565b820191906000526020600020905b8154815290600101906020018083116117bf57829003601f168201915b5050505050908060020180546117f1906124ed565b80601f016020809104026020016040519081016040528092919081815260200182805461181d906124ed565b801561186a5780601f1061183f5761010080835404028352916020019161186a565b820191906000526020600020905b81548152906001019060200180831161184d57829003601f168201915b50505050509080600301805461187f906124ed565b80601f01602080910402602001604051908101604052809291908181526020018280546118ab906124ed565b80156118f85780601f106118cd576101008083540402835291602001916118f8565b820191906000526020600020905b8154815290600101906020018083116118db57829003601f168201915b5050506004840154600785015460088601546009870154600a9097015495966001600160a01b0390931695919450925060ff1689565b606080600060606000806000611942611ee5565b60045461199f5760405162461bcd60e51b815260206004820152602560248201527f54686572652073686f756c6420626520612070726f706f73616c20746f20726560448201526430b21037b760d91b606482015260840161048a565b600488815481106119b2576119b261245f565b90600052602060002090600b0201600001600489815481106119d6576119d661245f565b90600052602060002090600b020160010160048a815481106119fa576119fa61245f565b90600052602060002090600b020160040160009054906101000a90046001600160a01b031660048b81548110611a3257611a3261245f565b90600052602060002090600b020160050160048c81548110611a5657611a5661245f565b90600052602060002090600b02016007015460048d81548110611a7b57611a7b61245f565b90600052602060002090600b02016009015460048e81548110611aa057611aa061245f565b90600052602060002090600b0201600a0160009054906101000a900460ff16868054611acb906124ed565b80601f0160208091040260200160405190810160405280929190818152602001828054611af7906124ed565b8015611b445780601f10611b1957610100808354040283529160200191611b44565b820191906000526020600020905b815481529060010190602001808311611b2757829003601f168201915b50505050509650858054611b57906124ed565b80601f0160208091040260200160405190810160405280929190818152602001828054611b83906124ed565b8015611bd05780601f10611ba557610100808354040283529160200191611bd0565b820191906000526020600020905b815481529060010190602001808311611bb357829003601f168201915b5050505050955083805480602002602001604051908101604052809291908181526020018280548015611c2c57602002820191906000526020600020905b81546001600160a01b03168152600190910190602001808311611c0e575b505050505093509650965096509650965096509650919395979092949650565b6040516371d4ed8d60e11b81526001600160a01b0382811660048301526000917f00000000000000000000000000000000000000000000000000000000000000009091169063e3a9db1a90602401602060405180830381865afa158015611cb7573d6000803e3d6000fd5b505050506040513d601f19601f8201168201806040525081019061097e9190612676565b611ce3611f32565b6001600160a01b038116611d485760405162461bcd60e51b815260206004820152602660248201527f4f776e61626c653a206e6577206f776e657220697320746865207a65726f206160448201526564647265737360d01b606482015260840161048a565b611d5181611f8c565b50565b611d5c611ee5565b3360009081526001602052604090205460ff1615611d7957600080fd5b3360009081526003602052604090205460ff1615611d9657600080fd5b3360009081526002602052604090205460ff1615611db357600080fd5b6000546001600160a01b03163303611dca57600080fd5b60048054600181018255600091909152600b027f8a35acfbc15ff81a39ae7d344fd709f28e8600b4aa8c65c6b64bfe7fe36bd19b0180611e0a86826126fc565b5060018101611e1985826126fc565b5060028101611e2884826126fc565b5060038101611e3783826126fc565b506004810180546001600160a01b031916331790556040805160008152602081019182905251611e6b916005840191612070565b5060006008820181905560098201819055600a8201805460ff19908116909155338083526001602081815260409485902080549094169091179092556004548351908152918201527f87548bfe9b4f8ecb6b1bc3a07fa980ae775360df21b3e966464afadee044941a910160405180910390a15050505050565b600054600160a01b900460ff1615610aec5760405162461bcd60e51b815260206004820152601060248201526f14185d5cd8589b194e881c185d5cd95960821b604482015260640161048a565b6000546001600160a01b03163314610aec5760405162461bcd60e51b815260206004820181905260248201527f4f776e61626c653a2063616c6c6572206973206e6f7420746865206f776e6572604482015260640161048a565b600080546001600160a01b038381166001600160a01b0319831681178455604051919092169283917f8be0079c531659141344cd1fd0a4f28419497f9722a3daafe3b4186f6b6457e09190a35050565b6000611fe882846127bc565b9392505050565b60405163f340fa0160e01b81526001600160a01b0383811660048301527f0000000000000000000000000000000000000000000000000000000000000000169063f340fa019083906024016000604051808303818588803b15801561205357600080fd5b505af1158015612067573d6000803e3d6000fd5b50505050505050565b8280548282559060005260206000209081019282156120c5579160200282015b828111156120c557825182546001600160a01b0319166001600160a01b03909116178255602090920191600190910190612090565b506120d19291506120d5565b5090565b5b808211156120d157600081556001016120d6565b6000602082840312156120fc57600080fd5b5035919050565b6001600160a01b0381168114611d5157600080fd5b60006020828403121561212a57600080fd5b8135611fe881612103565b6000806040838503121561214857600080fd5b82359150602083013561215a81612103565b809150509250929050565b6000815180845260005b8181101561218b5760208185018101518683018201520161216f565b506000602082860101526020601f19601f83011685010191505092915050565b634e487b7160e01b600052602160045260246000fd5b600681106121df57634e487b7160e01b600052602160045260246000fd5b9052565b60006101208083526121f78184018d612165565b9050828103602084015261220b818c612165565b9050828103604084015261221f818b612165565b90508281036060840152612233818a612165565b9150506001600160a01b03871660808301528560a08301528460c08301528360e08301526122656101008301846121c1565b9a9950505050505050505050565b60e08152600061228660e083018a612165565b602083820381850152612299828b612165565b6001600160a01b038a8116604087015285820360608701528951808352838b019450909183019060005b818110156122e15785518416835294840194918401916001016122c3565b5050809450505050508460808301528360a083015261230360c08301846121c1565b98975050505050505050565b634e487b7160e01b600052604160045260246000fd5b600082601f83011261233657600080fd5b813567ffffffffffffffff808211156123515761235161230f565b604051601f8301601f19908116603f011681019082821181831017156123795761237961230f565b8160405283815286602085880101111561239257600080fd5b836020870160208301376000602085830101528094505050505092915050565b600080600080608085870312156123c857600080fd5b843567ffffffffffffffff808211156123e057600080fd5b6123ec88838901612325565b9550602087013591508082111561240257600080fd5b61240e88838901612325565b9450604087013591508082111561242457600080fd5b61243088838901612325565b9350606087013591508082111561244657600080fd5b5061245387828801612325565b91505092959194509250565b634e487b7160e01b600052603260045260246000fd5b60208082526029908201527f50726f706f73616c207374617475732073686f756c64207374696c6c206265206040820152681cdd589b5a5d1d195960ba1b606082015260800190565b634e487b7160e01b600052601160045260246000fd5b6000600182016124e6576124e66124be565b5060010190565b600181811c9082168061250157607f821691505b60208210810361252157634e487b7160e01b600052602260045260246000fd5b50919050565b60008154612534816124ed565b808552602060018381168015612551576001811461256b57612599565b60ff1985168884015283151560051b880183019550612599565b866000528260002060005b858110156125915781548a8201860152908301908401612576565b890184019650505b505050505092915050565b60006101208083526125b88184018d612527565b90506020838203818501526125cd828d612527565b915083820360408501526125e1828c612527565b915083820360608501526125f5828b612527565b6001600160a01b038a8116608087015285820360a0870152895480835260008b8152848120955091928401915b81811015612640578554841683526001958601959285019201612622565b5050809450505050508460c08301528360e08301526122656101008301846121c1565b602081526000611fe86020830184612165565b60006020828403121561268857600080fd5b5051919050565b600060ff821660ff81036126a5576126a56124be565b60010192915050565b601f8211156112df57600081815260208120601f850160051c810160208610156126d55750805b601f850160051c820191505b818110156126f4578281556001016126e1565b505050505050565b815167ffffffffffffffff8111156127165761271661230f565b61272a8161272484546124ed565b846126ae565b602080601f83116001811461275f57600084156127475750858301515b600019600386901b1c1916600185901b1785556126f4565b600085815260208120601f198616915b8281101561278e5788860151825594840194600190910190840161276f565b50858210156127ac5787850151600019600388901b60f8161c191681555b5050505050600190811b01905550565b808202811582820484141761097e5761097e6124be56fea264697066735822122000cea7b417828296b452d86e8ba3e35119c382545e3204f46017738bfcc4e6bc64736f6c63430008110033608060405234801561001057600080fd5b5061001a3361001f565b61006f565b600080546001600160a01b038381166001600160a01b0319831681178455604051919092169283917f8be0079c531659141344cd1fd0a4f28419497f9722a3daafe3b4186f6b6457e09190a35050565b61052b8061007e6000396000f3fe6080604052600436106100655760003560e01c8063e3a9db1a11610043578063e3a9db1a146100ce578063f2fde38b14610112578063f340fa011461013257600080fd5b806351cff8d91461006a578063715018a61461008c5780638da5cb5b146100a1575b600080fd5b34801561007657600080fd5b5061008a6100853660046104aa565b610145565b005b34801561009857600080fd5b5061008a6101bc565b3480156100ad57600080fd5b506000546040516001600160a01b0390911681526020015b60405180910390f35b3480156100da57600080fd5b506101046100e93660046104aa565b6001600160a01b031660009081526001602052604090205490565b6040519081526020016100c5565b34801561011e57600080fd5b5061008a61012d3660046104aa565b6101d0565b61008a6101403660046104aa565b61024e565b61014d6102c0565b6001600160a01b0381166000818152600160205260408120805491905590610175908261031a565b816001600160a01b03167f7084f5476618d8e60b11ef0d7d3f06914655adb8793e28ff7f018d4c76d505d5826040516101b091815260200190565b60405180910390a25050565b6101c46102c0565b6101ce6000610438565b565b6101d86102c0565b6001600160a01b0381166102425760405162461bcd60e51b815260206004820152602660248201527f4f776e61626c653a206e6577206f776e657220697320746865207a65726f206160448201526564647265737360d01b60648201526084015b60405180910390fd5b61024b81610438565b50565b6102566102c0565b6001600160a01b0381166000908152600160205260408120805434928392916102809084906104ce565b90915550506040518181526001600160a01b038316907f2da466a7b24304f47e87fa2e1e5a81b9831ce54fec19055ce277ca2f39ba42c4906020016101b0565b6000546001600160a01b031633146101ce5760405162461bcd60e51b815260206004820181905260248201527f4f776e61626c653a2063616c6c6572206973206e6f7420746865206f776e65726044820152606401610239565b8047101561036a5760405162461bcd60e51b815260206004820152601d60248201527f416464726573733a20696e73756666696369656e742062616c616e63650000006044820152606401610239565b6000826001600160a01b03168260405160006040518083038185875af1925050503d80600081146103b7576040519150601f19603f3d011682016040523d82523d6000602084013e6103bc565b606091505b50509050806104335760405162461bcd60e51b815260206004820152603a60248201527f416464726573733a20756e61626c6520746f2073656e642076616c75652c207260448201527f6563697069656e74206d617920686176652072657665727465640000000000006064820152608401610239565b505050565b600080546001600160a01b0383811673ffffffffffffffffffffffffffffffffffffffff19831681178455604051919092169283917f8be0079c531659141344cd1fd0a4f28419497f9722a3daafe3b4186f6b6457e09190a35050565b6001600160a01b038116811461024b57600080fd5b6000602082840312156104bc57600080fd5b81356104c781610495565b9392505050565b808201808211156104ef57634e487b7160e01b600052601160045260246000fd5b9291505056fea2646970667358221220afc878dfbe039d8a072c282553224cf433161b10d3daec33649cd03f73f1c30f64736f6c63430008110033",
  "immutableReferences": {
    "227": [
      {
        "length": 32,
        "start": 2467
      },
      {
        "length": 32,
        "start": 7278
      },
      {
        "length": 32,
        "start": 8206
      }
    ]
  },
  "source": "pragma solidity ^0.8.0;\n\nimport \"../proposal/Proposal.sol\";\nimport \"../utils/Proof.sol\";\nimport \"@openzeppelin/contracts/security/PullPayment.sol\";\nimport \"@openzeppelin/contracts/access/Ownable.sol\";\nimport \"@openzeppelin/contracts/utils/math/SafeMath.sol\";\nimport \"@openzeppelin/contracts/security/Pausable.sol\";\n\n/// @title Simulation for City improvement proposal system.\n/// @author Joseph Nicholas R. Alcantara\n/// @notice This contract for educational purposes only, \n///         this will simulate a City improvement which \n///         is a type of legal proposal.\n/// @dev All of the functionalities are experimental but are already unit tested.\ncontract CityImprovement is Proposal, PullPayment, Ownable, Pausable {\n\n    using SafeMath for uint;\n\n    // address of patent applicants.\n    mapping(address => bool) public applicants;\n\n    // address of patent approvers.\n    mapping(address => bool) public approvers;\n\n    // address of improvement voters\n    mapping(address => bool) public voters;\n\n    // reward amount\n    uint constant private REWARD_AMOUNT = 1 ether;\n\n    // list of proposals\n    Proposal.ProposalDetails[] public improvements;\n\n    // Modifiers\n    modifier isApprover(address _address) {\n        require(approvers[_address] == true, \"Only approver is allowed\");\n        _;\n    }\n\n    modifier isVoter(address _address) {\n        require(voters[_address] == true, \"Only voter is allowed\");\n        _;\n    }\n\n    modifier notClosed(uint id) {\n        require(improvements[id].status != Proposal.State.Closed, \"Only open proposals are allowed\");\n        _;\n    }\n\n    /// @dev Reads and returns the proposal by Id.\n    /// @param id Proposal id.\n    function readProposal(uint id)\n    public\n    view\n    whenNotPaused\n    returns (string memory title,\n        string memory description,\n        address applicant,\n        address payable[] memory approver,\n        uint votes,\n        bytes32 proof,\n        Proposal.State status) {\n        require(improvements.length > 0, \"There should be a proposal to read on\");\n        return (improvements[id].title,\n        improvements[id].description,\n        improvements[id].applicant,\n        improvements[id].approver,\n        improvements[id].votes,\n        improvements[id].proof,\n        improvements[id].status);\n    }\n\n    /// @dev Start of city improvement application.\n    /// @param title City improvement title.\n    /// @param description City improvement description.\n    /// @param problem City improvement problem it wishes to tackle.\n    /// @param solution Problem's solution.\n    function submit(string memory title, string memory description, string memory problem, string memory solution) public whenNotPaused {\n        require(applicants[msg.sender] == false);\n        require(voters[msg.sender] == false);\n        require(approvers[msg.sender] == false);\n        require(msg.sender != owner());\n\n        ProposalDetails storage improvement = improvements.push();\n        improvement.title = title;\n        improvement.description = description;\n        improvement.problem = problem;\n        improvement.solution = solution;\n        improvement.applicant = payable(msg.sender);\n        improvement.approver = new address payable[](0);\n        //        votes: 0,\n        improvement.approvals = 0;\n        improvement.proof = 0x0;\n        improvement.status = Proposal.State.Submitted;\n\n\n        applicants[msg.sender] = true;\n        emit LogSubmit(improvements.length, msg.sender);\n    }\n\n    /// @dev Approves the City improvement proposal. Application approval sents some reward amount to\n    ///      the applicant which will also vary depending on the number of votes.\n    /// @param id City improvement ID.\n    function approve(uint id) public payable isApprover(msg.sender) notClosed(id) whenNotPaused {\n        require(improvements[id].votes > 0, \"Proposal votes should be present for approval\");\n        require(improvements[id].approvals <= 2, \"Proposal approvals not exceed 2\");\n        require(improvements[id].status == Proposal.State.Submitted, \"Proposal status should still be submitted\");\n        if (improvements[id].approver.length > 0) {\n            require(msg.sender != improvements[id].approver[0], \"Approver can only approve once\");\n        }\n\n        improvements[id].approvals++;\n        improvements[id].approver.push(payable(msg.sender));\n        if (improvements[id].approvals == 2) {\n            improvements[id].status = Proposal.State.Approved;\n\n            //After approval notarize proposal.\n            improvements[id].proof = Proof.notarize(abi.encode(improvements[id].title,\n                improvements[id].description,\n                improvements[id].problem,\n                improvements[id].solution,\n                improvements[id].applicant,\n                improvements[id].approver,\n                improvements[id].votes,\n                improvements[id].approvals,\n                improvements[id].status));\n\n            // reward some tokens to applicant.\n            _asyncTransfer(improvements[id].applicant, REWARD_AMOUNT.mul(improvements[id].votes));\n\n            // once approved applicant can submit, be a voter, or approver.\n            applicants[improvements[id].applicant] = false;\n\n            emit LogApprove(id);\n        }\n    }\n\n    /// @dev This function rejects the idea by the approver.\n    /// @param id Proposal id.\n    function reject(uint id) public isApprover(msg.sender) notClosed(id) whenNotPaused {\n        // Checks if an approver already approved the proposal.\n        if (improvements[id].approver.length > 0) {\n            require(msg.sender != improvements[id].approver[0], \"First approver cannot reject the application\");\n        }\n        require(improvements[id].status == Proposal.State.Submitted, \"Proposal status should still be submitted\");\n        improvements[id].approver.push(payable(msg.sender));\n        improvements[id].status = Proposal.State.Rejected;\n        applicants[msg.sender] = true;\n        emit LogReject(id);\n    }\n\n    /// @dev This function rejects the idea by the approver.\n    /// @param id Proposal id.\n    function vote(uint id) public isVoter(msg.sender) notClosed(id) whenNotPaused {\n        require(improvements[id].status == Proposal.State.Submitted, \"Proposal status should still be submitted\");\n        require(improvements[id].voted[msg.sender] == false, \"Voter can only vote once.\");\n        require(improvements[id].status != Proposal.State.Rejected, \"Cannot vote if already rejected\");\n\n        improvements[id].votes++;\n        improvements[id].voted[msg.sender] = true;\n        emit LogVote(id);\n    }\n\n    /// @dev Owner only function to close a proposal when it is approved or rejected.\n    /// @param id Proposal id.\n    function close(uint id) public onlyOwner notClosed(id) whenNotPaused {\n        require(improvements[id].status == Proposal.State.Approved || improvements[id].status == Proposal.State.Rejected, \"Proposal state should be approved or rejected.\");\n        improvements[id].status = Proposal.State.Closed;\n        emit LogClose(id);\n    }\n\n    /// @dev Marks the caller as the an approver, which will be assigned as among the 2 to approve proposals.\n    function applyForApprover() public whenNotPaused {\n        require(applicants[msg.sender] == false);\n        require(voters[msg.sender] == false);\n        require(approvers[msg.sender] == false);\n        require(msg.sender != owner());\n\n        approvers[msg.sender] = true;\n        emit LogApproverApply(msg.sender);\n    }\n\n    /// @dev Marks the caller as a voter, which can then be vote for proposals.\n    function applyForVoter() public whenNotPaused {\n        require(applicants[msg.sender] == false);\n        require(voters[msg.sender] == false);\n        require(approvers[msg.sender] == false);\n        require(msg.sender != owner());\n\n        voters[msg.sender] = true;\n        emit LogVoterApply(msg.sender);\n    }\n\n    /// @dev Gets the number of proposals.\n    /// @return number of proposals\n    function getNumberOfProposals() public view whenNotPaused returns (uint)  {\n        return improvements.length;\n    }\n\n    /// @dev Helper function to know if approver already is done.\n    /// @return true/false if approver is found in proposal\n    function doneApproving(uint id, address approver) public view returns (bool) {\n        for (uint8 idx = 0; idx < improvements[id].approver.length; idx++) {\n            if (improvements[id].approver[idx] == approver) {\n                return true;\n            }\n        }\n        return false;\n    }\n\n    /// @dev Helper function to know if voter already is done.\n    /// @return true/false if voter is found in proposal\n    function doneVoting(uint id, address voter) public view returns (bool) {\n        return improvements[id].voted[voter];\n    }\n}",
  "sourcePath": "/mnt/c/Users/josep/WebstormProjects/proposal-dapp/contracts/city/CityImprovement.sol",
  "compiler": {
    "name": "solc",
    "version": "0.8.17+commit.8df45f5f.Emscripten.clang"
  },
  "schemaVersion": "3.4.10",
  "updatedAt": "2022-10-20T06:37:44.052Z",
  "devdoc": {
    "author": "Joseph Nicholas R. Alcantara",
    "details": "All of the functionalities are experimental but are already unit tested.",
    "kind": "dev",
    "methods": {
      "applyForApprover()": {
        "details": "Marks the caller as the an approver, which will be assigned as among the 2 to approve proposals."
      },
      "applyForVoter()": {
        "details": "Marks the caller as a voter, which can then be vote for proposals."
      },
      "approve(uint256)": {
        "details": "Approves the City improvement proposal. Application approval sents some reward amount to      the applicant which will also vary depending on the number of votes.",
        "params": {
          "id": "City improvement ID."
        }
      },
      "close(uint256)": {
        "details": "Owner only function to close a proposal when it is approved or rejected.",
        "params": {
          "id": "Proposal id."
        }
      },
      "doneApproving(uint256,address)": {
        "details": "Helper function to know if approver already is done.",
        "returns": {
          "_0": "true/false if approver is found in proposal"
        }
      },
      "doneVoting(uint256,address)": {
        "details": "Helper function to know if voter already is done.",
        "returns": {
          "_0": "true/false if voter is found in proposal"
        }
      },
      "getNumberOfProposals()": {
        "details": "Gets the number of proposals.",
        "returns": {
          "_0": "number of proposals"
        }
      },
      "owner()": {
        "details": "Returns the address of the current owner."
      },
      "paused()": {
        "details": "Returns true if the contract is paused, and false otherwise."
      },
      "payments(address)": {
        "details": "Returns the payments owed to an address.",
        "params": {
          "dest": "The creditor's address."
        }
      },
      "readProposal(uint256)": {
        "details": "Reads and returns the proposal by Id.",
        "params": {
          "id": "Proposal id."
        }
      },
      "reject(uint256)": {
        "details": "This function rejects the idea by the approver.",
        "params": {
          "id": "Proposal id."
        }
      },
      "renounceOwnership()": {
        "details": "Leaves the contract without owner. It will not be possible to call `onlyOwner` functions anymore. Can only be called by the current owner. NOTE: Renouncing ownership will leave the contract without an owner, thereby removing any functionality that is only available to the owner."
      },
      "submit(string,string,string,string)": {
        "details": "Start of city improvement application.",
        "params": {
          "description": "City improvement description.",
          "problem": "City improvement problem it wishes to tackle.",
          "solution": "Problem's solution.",
          "title": "City improvement title."
        }
      },
      "transferOwnership(address)": {
        "details": "Transfers ownership of the contract to a new account (`newOwner`). Can only be called by the current owner."
      },
      "vote(uint256)": {
        "details": "This function rejects the idea by the approver.",
        "params": {
          "id": "Proposal id."
        }
      },
      "withdrawPayments(address)": {
        "details": "Withdraw accumulated payments, forwarding all gas to the recipient. Note that _any_ account can call this function, not just the `payee`. This means that contracts unaware of the `PullPayment` protocol can still receive funds this way, by having a separate account call {withdrawPayments}. WARNING: Forwarding all gas opens the door to reentrancy vulnerabilities. Make sure you trust the recipient, or are either following the checks-effects-interactions pattern or using {ReentrancyGuard}.",
        "params": {
          "payee": "Whose payments will be withdrawn. Causes the `escrow` to emit a {Withdrawn} event."
        }
      }
    },
    "title": "Simulation for City improvement proposal system.",
    "version": 1
  },
  "userdoc": {
    "kind": "user",
    "methods": {},
    "notice": "This contract for educational purposes only,          this will simulate a City improvement which          is a type of legal proposal.",
    "version": 1
  }
}