{
  "contractName": "Proof",
  "abi": [
    {
      "constant": true,
      "inputs": [
        {
          "internalType": "bytes",
          "name": "document",
          "type": "bytes"
        }
      ],
      "name": "notarize",
      "outputs": [
        {
          "internalType": "bytes32",
          "name": "",
          "type": "bytes32"
        }
      ],
      "payable": false,
      "stateMutability": "pure",
      "type": "function"
    }
  ],
  "bytecode": "0x61010d610026600b82828239805160001a60731461001957fe5b30600052607381538281f3fe730000000000000000000000000000000000000000301460806040526004361060335760003560e01c8063fb1ace34146038575b600080fd5b60a260048036036020811015604c57600080fd5b810190602081018135640100000000811115606657600080fd5b820183602082011115607757600080fd5b80359060200191846001830284011164010000000083111715609857600080fd5b50909250905060b4565b60408051918252519081900360200190f35b6000828260405180838380828437604051920182900390912097965050505050505056fea265627a7a723158204e8ddf542869dec9221c61a1d44c97fcc1bdd9c8d4f3d2c7b41bc9df6d0fe1ab64736f6c63430005100032",
  "source": "pragma solidity ^0.5.0;\n\nimport \"../proposal/Proposal.sol\";\nlibrary Proof {\n  \n  /// @dev Hashes the Proposal and add it as a Proof of approval.\n  /// @param document Proposal details. \n  /// @return hash of the Proposal.\n  function notarize(bytes calldata document) external pure returns (bytes32){\n    return keccak256(document);\n  }\n}\n",
  "sourcePath": "/home/joseph-dev/ConsensysAcademy/proposal-dapp/contracts/utils/Proof.sol",
  "compiler": {
    "name": "solc",
    "version": "0.5.16+commit.9c3226ce.Emscripten.clang"
  },
  "schemaVersion": "3.0.21",
  "updatedAt": "2020-01-29T13:14:08.662Z",
  "networkType": "ethereum",
  "devdoc": {
    "methods": {
      "notarize(bytes)": {
        "details": "Hashes the Proposal and add it as a Proof of approval.",
        "params": {
          "document": "Proposal details. "
        },
        "return": "hash of the Proposal."
      }
    }
  },
  "userdoc": {
    "methods": {}
  }
}