{
  "contractName": "ProofOfExistence",
  "abi": [
    {
      "constant": true,
      "inputs": [
        {
          "internalType": "bytes",
          "name": "document",
          "type": "bytes"
        }
      ],
      "name": "proofFor",
      "outputs": [
        {
          "internalType": "bytes32",
          "name": "",
          "type": "bytes32"
        }
      ],
      "payable": false,
      "stateMutability": "pure",
      "type": "function"
    }
  ],
  "bytecode": "0x610250610026600b82828239805160001a60731461001957fe5b30600052607381538281f3fe73000000000000000000000000000000000000000030146080604052600436106100405760003560e01c80630a2193ad14610045578063fb1ace3414610114575b600080fd5b6100fe6004803603602081101561005b57600080fd5b810190808035906020019064010000000081111561007857600080fd5b82018360208201111561008a57600080fd5b803590602001918460018302840111640100000000831117156100ac57600080fd5b91908080601f016020809104026020016040519081016040528093929190818152602001838380828437600081840152601f19601f8201169050808301925050505050505091929192905050506101ae565b6040518082815260200191505060405180910390f35b81801561012057600080fd5b506101986004803603602081101561013757600080fd5b810190808035906020019064010000000081111561015457600080fd5b82018360208201111561016657600080fd5b8035906020019184600183028401116401000000008311171561018857600080fd5b90919293919293905050506101bf565b6040518082815260200191505060405180910390f35b600081805190602001209050919050565b60008061020f84848080601f016020809104026020016040519081016040528093929190818152602001838380828437600081840152601f19601f820116905080830192505050505050506101ae565b9050809150509291505056fea265627a7a72315820ef10c6e4e0f43fd51d60594e67fa4b3c315de168304119b3699075dbd791ac0c64736f6c634300050c0032",
  "source": "pragma solidity ^0.5.0;\n\nimport \"./Proposal.sol\";\nlibrary ProofOfExistence {\n  // store a proof of existence in the contract state\n  // function storeProof(bytes32 proof) internal {\n  //   proofs[proof] = true;\n  // }\n  // store proof in IPFS\n  // calculate and store proof or a document\n  function notarize(bytes calldata document) external returns (bytes32){\n    bytes32 proof = proofFor(document);\n    return proof;\n    //storeProof(proof);\n  }\n\n  // helper function to store document's sha256\n  function proofFor(bytes memory document) public pure returns (bytes32) {\n    return keccak256(document);\n  }\n\n  // check if the document has been notarized\n  // function checkDocument(string memory document) public view returns (bool) {\n  //   bytes32 proof = proofFor(document);\n  //   return hasProof(proof);\n  // }\n  // check document in IPFS\n\n  // returns true if proof is already stored\n  // function hasProof(bytes32 proof) public view returns (bool) {\n  //   return proofs[proof];\n  // }\n  // store in IPFS\n}\n",
  "sourcePath": "/home/joseph-dev/ConsensysAcademy/patent-form-dapp/contracts/ProofOfExistence.sol",
  "compiler": {
    "name": "solc",
    "version": "0.5.12+commit.7709ece9.Emscripten.clang"
  },
  "schemaVersion": "3.0.20",
  "updatedAt": "2020-01-12T10:56:01.243Z",
  "networkType": "ethereum",
  "devdoc": {
    "methods": {}
  },
  "userdoc": {
    "methods": {}
  }
}