{
  "contractName": "Proof",
  "abi": [
    {
      "inputs": [
        {
          "internalType": "bytes",
          "name": "document",
          "type": "bytes"
        }
      ],
      "name": "notarize",
      "outputs": [
        {
          "internalType": "bytes32",
          "name": "",
          "type": "bytes32"
        }
      ],
      "stateMutability": "pure",
      "type": "function"
    }
  ],
  "bytecode": "0x61012c61003a600b82828239805160001a60731461002d57634e487b7160e01b600052600060045260246000fd5b30600052607381538281f3fe730000000000000000000000000000000000000000301460806040526004361060335760003560e01c8063fb1ace34146038575b600080fd5b604760433660046079565b6059565b60405190815260200160405180910390f35b60008282604051606992919060e6565b6040518091039020905092915050565b60008060208385031215608b57600080fd5b823567ffffffffffffffff8082111560a257600080fd5b818501915085601f83011260b557600080fd5b81358181111560c357600080fd5b86602082850101111560d457600080fd5b60209290920196919550909350505050565b818382376000910190815291905056fea2646970667358221220dc76becb779568ab8f3d2cb78ff89a9c81825f9b37397fb6170dfce66ee86c3b64736f6c63430008110033",
  "immutableReferences": {},
  "source": "pragma solidity ^0.8.0;\n\nimport \"../proposal/Proposal.sol\";\nlibrary Proof {\n  \n  /// @dev Hashes the Proposal and add it as a Proof of approval.\n  /// @param document Proposal details. \n  /// @return hash of the Proposal.\n  function notarize(bytes calldata document) external pure returns (bytes32){\n    return keccak256(document);\n  }\n}\n",
  "sourcePath": "/mnt/c/Users/josep/WebstormProjects/proposal-dapp/contracts/utils/Proof.sol",
  "compiler": {
    "name": "solc",
    "version": "0.8.17+commit.8df45f5f.Emscripten.clang"
  },
  "schemaVersion": "3.4.10",
  "updatedAt": "2022-10-20T06:37:44.079Z",
  "devdoc": {
    "kind": "dev",
    "methods": {
      "notarize(bytes)": {
        "details": "Hashes the Proposal and add it as a Proof of approval.",
        "params": {
          "document": "Proposal details. "
        },
        "returns": {
          "_0": "hash of the Proposal."
        }
      }
    },
    "version": 1
  },
  "userdoc": {
    "kind": "user",
    "methods": {},
    "version": 1
  }
}